{
  "_format": "hh3-artifact-1",
  "contractName": "TraceabilityMerkleRegistry",
  "sourceName": "contracts/TraceabilityMerkleRegistry.sol",
  "abi": [
    {
      "inputs": [],
      "stateMutability": "nonpayable",
      "type": "constructor"
    },
    {
      "inputs": [],
      "name": "BatchAlreadyClosed",
      "type": "error"
    },
    {
      "inputs": [],
      "name": "BatchCodeAlreadyUsed",
      "type": "error"
    },
    {
      "inputs": [],
      "name": "InvalidBatch",
      "type": "error"
    },
    {
      "inputs": [],
      "name": "InvalidEventType",
      "type": "error"
    },
    {
      "inputs": [],
      "name": "InvalidProduct",
      "type": "error"
    },
    {
      "inputs": [],
      "name": "MerkleRootAlreadySet",
      "type": "error"
    },
    {
      "inputs": [],
      "name": "PausedContract",
      "type": "error"
    },
    {
      "inputs": [],
      "name": "Unauthorized",
      "type": "error"
    },
    {
      "inputs": [],
      "name": "ZeroAddress",
      "type": "error"
    },
    {
      "anonymous": false,
      "inputs": [
        {
          "indexed": true,
          "internalType": "uint256",
          "name": "batchId",
          "type": "uint256"
        },
        {
          "indexed": true,
          "internalType": "bytes32",
          "name": "batchCodeHash",
          "type": "bytes32"
        },
        {
          "indexed": false,
          "internalType": "string",
          "name": "batchCode",
          "type": "string"
        }
      ],
      "name": "BatchCodeBound",
      "type": "event"
    },
    {
      "anonymous": false,
      "inputs": [
        {
          "indexed": true,
          "internalType": "uint256",
          "name": "batchId",
          "type": "uint256"
        },
        {
          "indexed": true,
          "internalType": "uint256",
          "name": "productId",
          "type": "uint256"
        },
        {
          "indexed": true,
          "internalType": "address",
          "name": "creator",
          "type": "address"
        },
        {
          "indexed": false,
          "internalType": "bytes32",
          "name": "initialDataHash",
          "type": "bytes32"
        }
      ],
      "name": "BatchCreated",
      "type": "event"
    },
    {
      "anonymous": false,
      "inputs": [
        {
          "indexed": true,
          "internalType": "uint256",
          "name": "batchId",
          "type": "uint256"
        },
        {
          "indexed": true,
          "internalType": "bytes32",
          "name": "merkleRoot",
          "type": "bytes32"
        },
        {
          "indexed": true,
          "internalType": "address",
          "name": "committer",
          "type": "address"
        }
      ],
      "name": "BatchMerkleRootCommitted",
      "type": "event"
    },
    {
      "anonymous": false,
      "inputs": [
        {
          "indexed": true,
          "internalType": "address",
          "name": "previousOwner",
          "type": "address"
        },
        {
          "indexed": true,
          "internalType": "address",
          "name": "newOwner",
          "type": "address"
        }
      ],
      "name": "OwnershipTransferred",
      "type": "event"
    },
    {
      "anonymous": false,
      "inputs": [
        {
          "indexed": false,
          "internalType": "address",
          "name": "account",
          "type": "address"
        }
      ],
      "name": "Paused",
      "type": "event"
    },
    {
      "anonymous": false,
      "inputs": [
        {
          "indexed": true,
          "internalType": "uint256",
          "name": "productId",
          "type": "uint256"
        },
        {
          "indexed": true,
          "internalType": "address",
          "name": "owner",
          "type": "address"
        },
        {
          "indexed": false,
          "internalType": "string",
          "name": "name",
          "type": "string"
        },
        {
          "indexed": false,
          "internalType": "string",
          "name": "metadataURI",
          "type": "string"
        }
      ],
      "name": "ProductCreated",
      "type": "event"
    },
    {
      "anonymous": false,
      "inputs": [
        {
          "indexed": true,
          "internalType": "address",
          "name": "account",
          "type": "address"
        },
        {
          "indexed": false,
          "internalType": "uint256",
          "name": "roles",
          "type": "uint256"
        }
      ],
      "name": "RolesUpdated",
      "type": "event"
    },
    {
      "anonymous": false,
      "inputs": [
        {
          "indexed": true,
          "internalType": "uint256",
          "name": "eventId",
          "type": "uint256"
        },
        {
          "indexed": true,
          "internalType": "uint256",
          "name": "batchId",
          "type": "uint256"
        },
        {
          "indexed": false,
          "internalType": "enum TraceabilityMerkleRegistry.EventType",
          "name": "eventType",
          "type": "uint8"
        },
        {
          "indexed": true,
          "internalType": "address",
          "name": "actor",
          "type": "address"
        },
        {
          "indexed": false,
          "internalType": "uint64",
          "name": "timestamp",
          "type": "uint64"
        },
        {
          "indexed": false,
          "internalType": "bytes32",
          "name": "dataHash",
          "type": "bytes32"
        }
      ],
      "name": "TraceEventRecorded",
      "type": "event"
    },
    {
      "anonymous": false,
      "inputs": [
        {
          "indexed": false,
          "internalType": "address",
          "name": "account",
          "type": "address"
        }
      ],
      "name": "Unpaused",
      "type": "event"
    },
    {
      "inputs": [],
      "name": "ROLE_AUDITOR",
      "outputs": [
        {
          "internalType": "uint256",
          "name": "",
          "type": "uint256"
        }
      ],
      "stateMutability": "view",
      "type": "function"
    },
    {
      "inputs": [],
      "name": "ROLE_PROCESSOR",
      "outputs": [
        {
          "internalType": "uint256",
          "name": "",
          "type": "uint256"
        }
      ],
      "stateMutability": "view",
      "type": "function"
    },
    {
      "inputs": [],
      "name": "ROLE_PRODUCER",
      "outputs": [
        {
          "internalType": "uint256",
          "name": "",
          "type": "uint256"
        }
      ],
      "stateMutability": "view",
      "type": "function"
    },
    {
      "inputs": [],
      "name": "ROLE_RETAILER",
      "outputs": [
        {
          "internalType": "uint256",
          "name": "",
          "type": "uint256"
        }
      ],
      "stateMutability": "view",
      "type": "function"
    },
    {
      "inputs": [],
      "name": "ROLE_TRANSPORTER",
      "outputs": [
        {
          "internalType": "uint256",
          "name": "",
          "type": "uint256"
        }
      ],
      "stateMutability": "view",
      "type": "function"
    },
    {
      "inputs": [
        {
          "internalType": "bytes32",
          "name": "",
          "type": "bytes32"
        }
      ],
      "name": "batchCodeHashToBatchId",
      "outputs": [
        {
          "internalType": "uint256",
          "name": "",
          "type": "uint256"
        }
      ],
      "stateMutability": "view",
      "type": "function"
    },
    {
      "inputs": [
        {
          "internalType": "uint256",
          "name": "",
          "type": "uint256"
        },
        {
          "internalType": "uint256",
          "name": "",
          "type": "uint256"
        }
      ],
      "name": "batchEvents",
      "outputs": [
        {
          "internalType": "uint256",
          "name": "",
          "type": "uint256"
        }
      ],
      "stateMutability": "view",
      "type": "function"
    },
    {
      "inputs": [
        {
          "internalType": "uint256",
          "name": "",
          "type": "uint256"
        }
      ],
      "name": "batchMerkleRoot",
      "outputs": [
        {
          "internalType": "bytes32",
          "name": "",
          "type": "bytes32"
        }
      ],
      "stateMutability": "view",
      "type": "function"
    },
    {
      "inputs": [
        {
          "internalType": "uint256",
          "name": "",
          "type": "uint256"
        }
      ],
      "name": "batches",
      "outputs": [
        {
          "internalType": "uint256",
          "name": "productId",
          "type": "uint256"
        },
        {
          "internalType": "address",
          "name": "creator",
          "type": "address"
        },
        {
          "internalType": "address",
          "name": "currentOwner",
          "type": "address"
        },
        {
          "internalType": "bytes32",
          "name": "initialDataHash",
          "type": "bytes32"
        },
        {
          "internalType": "bool",
          "name": "exists",
          "type": "bool"
        },
        {
          "internalType": "bool",
          "name": "closed",
          "type": "bool"
        }
      ],
      "stateMutability": "view",
      "type": "function"
    },
    {
      "inputs": [
        {
          "internalType": "uint256",
          "name": "batchId",
          "type": "uint256"
        },
        {
          "internalType": "string",
          "name": "batchCode",
          "type": "string"
        }
      ],
      "name": "bindBatchCode",
      "outputs": [],
      "stateMutability": "nonpayable",
      "type": "function"
    },
    {
      "inputs": [
        {
          "internalType": "uint256",
          "name": "batchId",
          "type": "uint256"
        },
        {
          "internalType": "bytes32",
          "name": "merkleRoot",
          "type": "bytes32"
        }
      ],
      "name": "commitBatchMerkleRoot",
      "outputs": [],
      "stateMutability": "nonpayable",
      "type": "function"
    },
    {
      "inputs": [
        {
          "internalType": "uint256",
          "name": "productId",
          "type": "uint256"
        },
        {
          "internalType": "bytes32",
          "name": "initialDataHash",
          "type": "bytes32"
        }
      ],
      "name": "createBatch",
      "outputs": [
        {
          "internalType": "uint256",
          "name": "batchId",
          "type": "uint256"
        }
      ],
      "stateMutability": "nonpayable",
      "type": "function"
    },
    {
      "inputs": [
        {
          "internalType": "string",
          "name": "name",
          "type": "string"
        },
        {
          "internalType": "string",
          "name": "metadataURI",
          "type": "string"
        }
      ],
      "name": "createProduct",
      "outputs": [
        {
          "internalType": "uint256",
          "name": "productId",
          "type": "uint256"
        }
      ],
      "stateMutability": "nonpayable",
      "type": "function"
    },
    {
      "inputs": [
        {
          "internalType": "uint256",
          "name": "",
          "type": "uint256"
        }
      ],
      "name": "eventsById",
      "outputs": [
        {
          "internalType": "uint256",
          "name": "batchId",
          "type": "uint256"
        },
        {
          "internalType": "enum TraceabilityMerkleRegistry.EventType",
          "name": "eventType",
          "type": "uint8"
        },
        {
          "internalType": "address",
          "name": "actor",
          "type": "address"
        },
        {
          "internalType": "uint64",
          "name": "timestamp",
          "type": "uint64"
        },
        {
          "internalType": "bytes32",
          "name": "dataHash",
          "type": "bytes32"
        }
      ],
      "stateMutability": "view",
      "type": "function"
    },
    {
      "inputs": [
        {
          "internalType": "uint256",
          "name": "batchId",
          "type": "uint256"
        }
      ],
      "name": "getBatchEvents",
      "outputs": [
        {
          "internalType": "uint256[]",
          "name": "",
          "type": "uint256[]"
        }
      ],
      "stateMutability": "view",
      "type": "function"
    },
    {
      "inputs": [
        {
          "internalType": "address",
          "name": "account",
          "type": "address"
        },
        {
          "internalType": "uint256",
          "name": "role",
          "type": "uint256"
        }
      ],
      "name": "hasRole",
      "outputs": [
        {
          "internalType": "bool",
          "name": "",
          "type": "bool"
        }
      ],
      "stateMutability": "view",
      "type": "function"
    },
    {
      "inputs": [],
      "name": "nextBatchId",
      "outputs": [
        {
          "internalType": "uint256",
          "name": "",
          "type": "uint256"
        }
      ],
      "stateMutability": "view",
      "type": "function"
    },
    {
      "inputs": [],
      "name": "nextEventId",
      "outputs": [
        {
          "internalType": "uint256",
          "name": "",
          "type": "uint256"
        }
      ],
      "stateMutability": "view",
      "type": "function"
    },
    {
      "inputs": [],
      "name": "nextProductId",
      "outputs": [
        {
          "internalType": "uint256",
          "name": "",
          "type": "uint256"
        }
      ],
      "stateMutability": "view",
      "type": "function"
    },
    {
      "inputs": [],
      "name": "owner",
      "outputs": [
        {
          "internalType": "address",
          "name": "",
          "type": "address"
        }
      ],
      "stateMutability": "view",
      "type": "function"
    },
    {
      "inputs": [],
      "name": "pause",
      "outputs": [],
      "stateMutability": "nonpayable",
      "type": "function"
    },
    {
      "inputs": [],
      "name": "paused",
      "outputs": [
        {
          "internalType": "bool",
          "name": "",
          "type": "bool"
        }
      ],
      "stateMutability": "view",
      "type": "function"
    },
    {
      "inputs": [
        {
          "internalType": "uint256",
          "name": "",
          "type": "uint256"
        }
      ],
      "name": "products",
      "outputs": [
        {
          "internalType": "string",
          "name": "name",
          "type": "string"
        },
        {
          "internalType": "string",
          "name": "metadataURI",
          "type": "string"
        },
        {
          "internalType": "address",
          "name": "owner",
          "type": "address"
        },
        {
          "internalType": "bool",
          "name": "exists",
          "type": "bool"
        }
      ],
      "stateMutability": "view",
      "type": "function"
    },
    {
      "inputs": [
        {
          "internalType": "uint256",
          "name": "batchId",
          "type": "uint256"
        },
        {
          "internalType": "enum TraceabilityMerkleRegistry.EventType",
          "name": "eventType",
          "type": "uint8"
        },
        {
          "internalType": "bytes32",
          "name": "dataHash",
          "type": "bytes32"
        }
      ],
      "name": "recordTraceEvent",
      "outputs": [],
      "stateMutability": "nonpayable",
      "type": "function"
    },
    {
      "inputs": [
        {
          "internalType": "address",
          "name": "",
          "type": "address"
        }
      ],
      "name": "roles",
      "outputs": [
        {
          "internalType": "uint256",
          "name": "",
          "type": "uint256"
        }
      ],
      "stateMutability": "view",
      "type": "function"
    },
    {
      "inputs": [
        {
          "internalType": "address",
          "name": "account",
          "type": "address"
        },
        {
          "internalType": "uint256",
          "name": "newRoles",
          "type": "uint256"
        }
      ],
      "name": "setRoles",
      "outputs": [],
      "stateMutability": "nonpayable",
      "type": "function"
    },
    {
      "inputs": [
        {
          "internalType": "address",
          "name": "newOwner",
          "type": "address"
        }
      ],
      "name": "transferOwnership",
      "outputs": [],
      "stateMutability": "nonpayable",
      "type": "function"
    },
    {
      "inputs": [],
      "name": "unpause",
      "outputs": [],
      "stateMutability": "nonpayable",
      "type": "function"
    },
    {
      "inputs": [
        {
          "internalType": "bytes32",
          "name": "leaf",
          "type": "bytes32"
        },
        {
          "internalType": "bytes32",
          "name": "root",
          "type": "bytes32"
        },
        {
          "internalType": "bytes32[]",
          "name": "proof",
          "type": "bytes32[]"
        }
      ],
      "name": "verifyWithRoot",
      "outputs": [
        {
          "internalType": "bool",
          "name": "",
          "type": "bool"
        }
      ],
      "stateMutability": "pure",
      "type": "function"
    }
  ],
  "bytecode": "0x6080604052600160035560016004556001600555348015601d575f5ffd5b505f80546001600160a01b0319163390811782556040519091907f8be0079c531659141344cd1fd0a4f28419497f9722a3daafe3b4186f6b6457e0908290a3611b81806100695f395ff3fe608060405234801561000f575f5ffd5b506004361061016c575f3560e01c806387592bce116100d157806387592bce146102ec5780638ace69cf146102ff5780638da5cb5b1461031257806399374642146103315780639a7a0238146103505780639f9d903a14610363578063a13fbeed1461036c578063b0a4542e14610374578063b32c4d8d14610387578063b43857e814610418578063bc7b8b2414610420578063c4d6b7d514610428578063de75348c1461043b578063ecd406601461044e578063f2fde38b1461046e575f5ffd5b806321a6f8aa1461017057806333a3ad8f1461018b578063391224c2146101a05780633f029aaf146101bf5780633f4ba83a146101c7578063483fc3bb146101cf5780634cd68578146101f25780634de91a63146102115780635c975abb1461021a5780635c97f4a2146102275780636d7524ee146102555780637acc0b20146102b85780638456cb59146102db5780638462a7f8146102e3575b5f5ffd5b610178600281565b6040519081526020015b60405180910390f35b61019e6101993660046115c0565b610481565b005b6101786101ae3660046115e8565b600b6020525f908152604090205481565b610178601081565b61019e610529565b6101e26101dd3660046115ff565b610596565b6040519015158152602001610182565b6101786102003660046115e8565b600a6020525f908152604090205481565b61017860035481565b6002546101e29060ff1681565b6101e26102353660046115c0565b6001600160a01b03919091165f9081526001602052604090205416151590565b6102a76102633660046115e8565b60086020525f9081526040902080546001820154600290920154909160ff81169161010082046001600160a01b031691600160a81b90046001600160401b03169085565b6040516101829594939291906116b0565b6102cb6102c63660046115e8565b6105ad565b6040516101829493929190611720565b61019e6106f0565b61017860045481565b6101786102fa3660046117aa565b610756565b61019e61030d366004611814565b610913565b5f54610324906001600160a01b031681565b6040516101829190611834565b61017861033f366004611848565b60016020525f908152604090205481565b61019e61035e366004611868565b610a3f565b61017860055481565b610178600181565b61019e6103823660046118af565b610bcd565b6103db6103953660046115e8565b60076020525f90815260409020805460018201546002830154600384015460049094015492936001600160a01b0392831693929091169160ff8082169161010090041686565b604080519687526001600160a01b0395861660208801529390941692850192909252606084015215156080830152151560a082015260c001610182565b610178600881565b610178600481565b610178610436366004611814565b610d20565b610178610449366004611814565b611027565b61046161045c3660046115e8565b611052565b60405161018291906118e7565b61019e61047c366004611848565b6110b1565b5f546001600160a01b031633146104aa576040516282b42960e81b815260040160405180910390fd5b6001600160a01b0382166104d15760405163d92e233d60e01b815260040160405180910390fd5b6001600160a01b0382165f8181526001602052604090819020839055517f715ad5ce61fc9595c7b415289d59cf203f23a94fa06f04af7e489a0a76e1fe269061051d9084815260200190565b60405180910390a25050565b5f546001600160a01b03163314610552576040516282b42960e81b815260040160405180910390fd5b6002805460ff191690556040517f5db9ee0a495bf2e6ff9c91a7834c1ba4fdd244a5e8aa4e537bd38aeae4b073aa9061058c903390611834565b60405180910390a1565b5f836105a386858561115a565b1495945050505050565b60066020525f90815260409020805481906105c79061191e565b80601f01602080910402602001604051908101604052809291908181526020018280546105f39061191e565b801561063e5780601f106106155761010080835404028352916020019161063e565b820191905f5260205f20905b81548152906001019060200180831161062157829003601f168201915b5050505050908060010180546106539061191e565b80601f016020809104026020016040519081016040528092919081815260200182805461067f9061191e565b80156106ca5780601f106106a1576101008083540402835291602001916106ca565b820191905f5260205f20905b8154815290600101906020018083116106ad57829003601f168201915b505050600290930154919250506001600160a01b0381169060ff600160a01b9091041684565b5f546001600160a01b03163314610719576040516282b42960e81b815260040160405180910390fd5b6002805460ff191660011790556040517f62e78cea01bee320cd4e420270b5ea74000d11b0c9f74754ebdbfc544b05a2589061058c903390611834565b6002545f9060ff161561077c57604051637991559360e11b815260040160405180910390fd5b335f9081526001602081905260409091205481161580156107a757505f546001600160a01b03163314155b156107c4576040516282b42960e81b815260040160405180910390fd5b60038054905f6107d383611956565b909155506040805160a06020601f8a0181900402820181019092526080810188815292945091829189908990819085018382808284375f92019190915250505090825250604080516020601f8801819004810282018101909252868152918101919087908790819084018382808284375f92018290525093855250503360208085019190915260016040948501528683526006905250208151819061087890826119d2565b506020820151600182019061088d90826119d2565b50604082810151600290920180546060909401511515600160a01b026001600160a81b03199094166001600160a01b039093169290921792909217905551339083907f5b6548625353cfbb6de6bbb313a0b1cf8efbb45f2874f24c9d352590e3e366ff90610902908a908a908a908a90611ab4565b60405180910390a350949350505050565b60025460ff161561093757604051637991559360e11b815260040160405180910390fd5b5f82815260076020526040902060040154829060ff1661096a576040516333b094a160e01b815260040160405180910390fd5b8161098857604051631746482760e11b815260040160405180910390fd5b5f838152600b6020526040902054156109b457604051631801b65960e21b815260040160405180910390fd5b335f81815260016020526040812054905490916001600160a01b03909116148015906109e1575060108116155b156109fe576040516282b42960e81b815260040160405180910390fd5b5f848152600b6020526040808220859055513391859187917f6cc668dfcfb73b1f297b65a8bd52a62f4c634e392247b9d7c35b1e4b590e577f91a450505050565b60025460ff1615610a6357604051637991559360e11b815260040160405180910390fd5b5f83815260076020526040902060040154839060ff16610a96576040516333b094a160e01b815260040160405180910390fd5b5f84815260076020526040902060028101546001600160a01b03163314801590610acd575060018101546001600160a01b03163314155b8015610ae357505f546001600160a01b03163314155b15610b00576040516282b42960e81b815260040160405180910390fd5b6004810154610100900460ff1615610b2b576040516335ee5c4560e11b815260040160405180910390fd5b5f8484604051610b3c929190611ae5565b60405180910390209050600a5f8281526020019081526020015f20545f14610b775760405163e092299d60e01b815260040160405180910390fd5b5f818152600a60205260409081902087905551819087907f506c82a4b9513c193f67b1622dbdf0b23390c1ad17a36d51e1db7b4410c7429590610bbd9089908990611af4565b60405180910390a3505050505050565b60025460ff1615610bf157604051637991559360e11b815260040160405180910390fd5b5f83815260076020526040902060040154839060ff16610c24576040516333b094a160e01b815260040160405180910390fd5b5f8481526007602052604090206004810154610100900460ff1615610c5c576040516335ee5c4560e11b815260040160405180910390fd5b610c6684336111fd565b6003846007811115610c7a57610c7a61167c565b1480610c9757506004846007811115610c9557610c9561167c565b145b15610cb1576002810180546001600160a01b031916331790555b6005846007811115610cc557610cc561167c565b1480610ce257506006846007811115610ce057610ce061167c565b145b15610d0d576002810180546001600160a01b0319163317905560048101805461ff0019166101001790555b610d19858533866113ff565b5050505050565b6002545f9060ff1615610d4657604051637991559360e11b815260040160405180910390fd5b335f908152600160208190526040909120548116158015610d7157505f546001600160a01b03163314155b15610d8e576040516282b42960e81b815260040160405180910390fd5b5f84815260066020526040808220815160808101909252805482908290610db49061191e565b80601f0160208091040260200160405190810160405280929190818152602001828054610de09061191e565b8015610e2b5780601f10610e0257610100808354040283529160200191610e2b565b820191905f5260205f20905b815481529060010190602001808311610e0e57829003601f168201915b50505050508152602001600182018054610e449061191e565b80601f0160208091040260200160405190810160405280929190818152602001828054610e709061191e565b8015610ebb5780601f10610e9257610100808354040283529160200191610ebb565b820191905f5260205f20905b815481529060010190602001808311610e9e57829003601f168201915b5050509183525050600291909101546001600160a01b0381166020830152600160a01b900460ff1615156040909101526060810151909150610f105760405163a661c0e760e01b815260040160405180910390fd5b60048054905f610f1f83611956565b909155506040805160c081018252878152336020808301828152838501838152606085018b81526001608087018181525f60a089018181528b8252600790975298892097518855935190870180546001600160a01b03199081166001600160a01b039384161790915592516002880180549094169116179091555160038501555160049093018054915161ffff1990921693151561ff001916939093176101009115159190910217909155919450610fda91859190876113ff565b336001600160a01b031685847fb8e4c77c5f3171f096fd7e3977a2eebf1c3eefe6547f83f12fe70bf3361daa7d8760405161101791815260200190565b60405180910390a4505092915050565b6009602052815f5260405f208181548110611040575f80fd5b905f5260205f20015f91509150505481565b5f818152600960209081526040918290208054835181840281018401909452808452606093928301828280156110a557602002820191905f5260205f20905b815481526020019060010190808311611091575b50505050509050919050565b5f546001600160a01b031633146110da576040516282b42960e81b815260040160405180910390fd5b6001600160a01b0381166111015760405163d92e233d60e01b815260040160405180910390fd5b5f80546040516001600160a01b03808516939216917f8be0079c531659141344cd1fd0a4f28419497f9722a3daafe3b4186f6b6457e091a35f80546001600160a01b0319166001600160a01b0392909216919091179055565b5f8382825b818110156111f2575f86868381811061117a5761117a611b0f565b905060200201359050808410156111bc5760408051602081018690529081018290526060016040516020818303038152906040528051906020012093506111e9565b60408051602081018390529081018590526060016040516020818303038152906040528051906020012093505b5060010161115f565b509095945050505050565b6001600160a01b038082165f818152600160205260408120549054909216900361122657505050565b5f8360078111156112395761123961167c565b0361126557600181165f03611260576040516282b42960e81b815260040160405180910390fd5b505050565b60018360078111156112795761127961167c565b036112a057600381165f03611260576040516282b42960e81b815260040160405180910390fd5b60028360078111156112b4576112b461167c565b036112db57600781165f03611260576040516282b42960e81b815260040160405180910390fd5b60038360078111156112ef576112ef61167c565b0361131657600a81165f03611260576040516282b42960e81b815260040160405180910390fd5b600483600781111561132a5761132a61167c565b0361135157600a81165f03611260576040516282b42960e81b815260040160405180910390fd5b60058360078111156113655761136561167c565b0361138c57600881165f03611260576040516282b42960e81b815260040160405180910390fd5b60068360078111156113a0576113a061167c565b036113c757601981165f03611260576040516282b42960e81b815260040160405180910390fd5b60078360078111156113db576113db61167c565b0361126057805f03611260576040516282b42960e81b815260040160405180910390fd5b600783818111156114125761141261167c565b60ff16111561143457604051631746482760e11b815260040160405180910390fd5b600580545f918261144483611956565b9190505590506040518060a0016040528086815260200185600781111561146d5761146d61167c565b8152602001846001600160a01b03168152602001426001600160401b031681526020018381525060085f8381526020019081526020015f205f820151815f01556020820151816001015f6101000a81548160ff021916908360078111156114d6576114d661167c565b02179055506040828101516001808401805460608701516001600160401b0316600160a81b0267ffffffffffffffff60a81b196001600160a01b039586166101000216610100600160e81b0319909216919091171790556080909401516002909301929092555f888152600960209081528282208054958601815582529020909201839055905190841690869083907f0dcf9cf0b0ef90d5acde712ce20c5e9389f622a1bc4c8f8d34cbecbdb3172f089061159690899042908990611b23565b60405180910390a45050505050565b80356001600160a01b03811681146115bb575f5ffd5b919050565b5f5f604083850312156115d1575f5ffd5b6115da836115a5565b946020939093013593505050565b5f602082840312156115f8575f5ffd5b5035919050565b5f5f5f5f60608587031215611612575f5ffd5b843593506020850135925060408501356001600160401b03811115611635575f5ffd5b8501601f81018713611645575f5ffd5b80356001600160401b0381111561165a575f5ffd5b8760208260051b840101111561166e575f5ffd5b949793965060200194505050565b634e487b7160e01b5f52602160045260245ffd5b600881106116ac57634e487b7160e01b5f52602160045260245ffd5b9052565b85815260a081016116c46020830187611690565b6001600160a01b039490941660408201526001600160401b0392909216606083015260809091015292915050565b5f81518084528060208401602086015e5f602082860101526020601f19601f83011685010191505092915050565b608081525f61173260808301876116f2565b828103602084015261174481876116f2565b6001600160a01b03959095166040840152505090151560609091015292915050565b5f5f83601f840112611776575f5ffd5b5081356001600160401b0381111561178c575f5ffd5b6020830191508360208285010111156117a3575f5ffd5b9250929050565b5f5f5f5f604085870312156117bd575f5ffd5b84356001600160401b038111156117d2575f5ffd5b6117de87828801611766565b90955093505060208501356001600160401b038111156117fc575f5ffd5b61180887828801611766565b95989497509550505050565b5f5f60408385031215611825575f5ffd5b50508035926020909101359150565b6001600160a01b0391909116815260200190565b5f60208284031215611858575f5ffd5b611861826115a5565b9392505050565b5f5f5f6040848603121561187a575f5ffd5b8335925060208401356001600160401b03811115611896575f5ffd5b6118a286828701611766565b9497909650939450505050565b5f5f5f606084860312156118c1575f5ffd5b833592506020840135600881106118d6575f5ffd5b929592945050506040919091013590565b602080825282518282018190525f918401906040840190835b818110156111f2578351835260209384019390920191600101611900565b600181811c9082168061193257607f821691505b60208210810361195057634e487b7160e01b5f52602260045260245ffd5b50919050565b5f6001820161197357634e487b7160e01b5f52601160045260245ffd5b5060010190565b634e487b7160e01b5f52604160045260245ffd5b601f82111561126057805f5260205f20601f840160051c810160208510156119b35750805b601f840160051c820191505b81811015610d19575f81556001016119bf565b81516001600160401b038111156119eb576119eb61197a565b6119ff816119f9845461191e565b8461198e565b6020601f821160018114611a31575f8315611a1a5750848201515b5f19600385901b1c1916600184901b178455610d19565b5f84815260208120601f198516915b82811015611a605787850151825560209485019460019092019101611a40565b5084821015611a7d57868401515f19600387901b60f8161c191681555b50505050600190811b01905550565b81835281816020850137505f828201602090810191909152601f909101601f19169091010190565b604081525f611ac7604083018688611a8c565b8281036020840152611ada818587611a8c565b979650505050505050565b818382375f9101908152919050565b602081525f611b07602083018486611a8c565b949350505050565b634e487b7160e01b5f52603260045260245ffd5b60608101611b318286611690565b6001600160401b039390931660208201526040015291905056fea2646970667358221220d15b5957eed2ab3e0cae659f17f944000386b38db41fc9923906420ea7a8c96064736f6c634300081c0033",
  "linkReferences": {},
  "deployedLinkReferences": {},
  "immutableReferences": {},
  "inputSourceName": "project/contracts/TraceabilityMerkleRegistry.sol",
  "buildInfoId": "solc-0_8_28-946427ec64e7aa87e6875056acd824f62ffafa9b"
}