{
  "_format": "hh3-artifact-1",
  "contractName": "AddressBook",
  "sourceName": "contracts/AddressBook.sol",
  "abi": [
    {
      "anonymous": false,
      "inputs": [
        {
          "indexed": false,
          "internalType": "address",
          "name": "orgs",
          "type": "address"
        },
        {
          "indexed": false,
          "internalType": "address",
          "name": "batches",
          "type": "address"
        },
        {
          "indexed": false,
          "internalType": "address",
          "name": "certs",
          "type": "address"
        },
        {
          "indexed": false,
          "internalType": "address",
          "name": "telemetry",
          "type": "address"
        }
      ],
      "name": "Linked",
      "type": "event"
    },
    {
      "anonymous": false,
      "inputs": [
        {
          "indexed": true,
          "internalType": "address",
          "name": "previousOwner",
          "type": "address"
        },
        {
          "indexed": true,
          "internalType": "address",
          "name": "newOwner",
          "type": "address"
        }
      ],
      "name": "OwnershipTransferred",
      "type": "event"
    },
    {
      "anonymous": false,
      "inputs": [
        {
          "indexed": true,
          "internalType": "address",
          "name": "account",
          "type": "address"
        },
        {
          "indexed": false,
          "internalType": "bool",
          "name": "enabled",
          "type": "bool"
        }
      ],
      "name": "SuperAdminSet",
      "type": "event"
    },
    {
      "inputs": [],
      "name": "batches",
      "outputs": [
        {
          "internalType": "contract BatchRegistry",
          "name": "",
          "type": "address"
        }
      ],
      "stateMutability": "view",
      "type": "function"
    },
    {
      "inputs": [],
      "name": "certs",
      "outputs": [
        {
          "internalType": "contract CertRegistry",
          "name": "",
          "type": "address"
        }
      ],
      "stateMutability": "view",
      "type": "function"
    },
    {
      "inputs": [
        {
          "internalType": "address",
          "name": "_orgs",
          "type": "address"
        },
        {
          "internalType": "address",
          "name": "_batches",
          "type": "address"
        },
        {
          "internalType": "address",
          "name": "_certs",
          "type": "address"
        },
        {
          "internalType": "address",
          "name": "_telemetry",
          "type": "address"
        }
      ],
      "name": "link",
      "outputs": [],
      "stateMutability": "nonpayable",
      "type": "function"
    },
    {
      "inputs": [],
      "name": "orgs",
      "outputs": [
        {
          "internalType": "contract OrganizationRegistry",
          "name": "",
          "type": "address"
        }
      ],
      "stateMutability": "view",
      "type": "function"
    },
    {
      "inputs": [],
      "name": "owner",
      "outputs": [
        {
          "internalType": "address",
          "name": "",
          "type": "address"
        }
      ],
      "stateMutability": "view",
      "type": "function"
    },
    {
      "inputs": [
        {
          "internalType": "address",
          "name": "account",
          "type": "address"
        },
        {
          "internalType": "bool",
          "name": "enabled",
          "type": "bool"
        }
      ],
      "name": "setSuperAdmin",
      "outputs": [],
      "stateMutability": "nonpayable",
      "type": "function"
    },
    {
      "inputs": [
        {
          "internalType": "address",
          "name": "",
          "type": "address"
        }
      ],
      "name": "superAdmins",
      "outputs": [
        {
          "internalType": "bool",
          "name": "",
          "type": "bool"
        }
      ],
      "stateMutability": "view",
      "type": "function"
    },
    {
      "inputs": [],
      "name": "telemetry",
      "outputs": [
        {
          "internalType": "contract TelemetryAnchor",
          "name": "",
          "type": "address"
        }
      ],
      "stateMutability": "view",
      "type": "function"
    },
    {
      "inputs": [
        {
          "internalType": "address",
          "name": "newOwner",
          "type": "address"
        }
      ],
      "name": "tranferOwnership",
      "outputs": [],
      "stateMutability": "nonpayable",
      "type": "function"
    }
  ],
  "bytecode": "0x6080604052348015600e575f5ffd5b505f80546001600160a01b03191633908117825580825260016020818152604093849020805460ff191683179055925190815290917faa3bcffaffe2ebaa44f40802661a785830dae1059ca47f870902cb184dba88b7910160405180910390a26105648061007b5f395ff3fe608060405234801561000f575f5ffd5b5060043610610081575f3560e01c806340f41c191461008557806383fc58b4146100b557806387137182146100ca5780638da5cb5b146100dd578063ad25cb42146100ef578063cab19cdc14610121578063cfdf677e14610134578063ebe3bb6214610147578063ffddcb871461015a575b5f5ffd5b600554610098906001600160a01b031681565b6040516001600160a01b0390911681526020015b60405180910390f35b6100c86100c336600461043e565b61016d565b005b6100c86100d836600461045e565b610240565b5f54610098906001600160a01b031681565b6101116100fd36600461043e565b60016020525f908152604090205460ff1681565b60405190151581526020016100ac565b600254610098906001600160a01b031681565b600354610098906001600160a01b031681565b6100c86101553660046104af565b61039c565b600454610098906001600160a01b031681565b5f546001600160a01b0316331461019f5760405162461bcd60e51b8152600401610196906104e8565b60405180910390fd5b6001600160a01b0381166101e75760405162461bcd60e51b815260206004820152600f60248201526e494e56414c49445f4144445245535360881b6044820152606401610196565b5f80546040516001600160a01b03808516939216917f8be0079c531659141344cd1fd0a4f28419497f9722a3daafe3b4186f6b6457e091a35f80546001600160a01b0319166001600160a01b0392909216919091179055565b5f546001600160a01b031633146102695760405162461bcd60e51b8152600401610196906104e8565b6001600160a01b03841661028f5760405162461bcd60e51b81526004016101969061050b565b6001600160a01b0383166102b55760405162461bcd60e51b81526004016101969061050b565b6001600160a01b0382166102db5760405162461bcd60e51b81526004016101969061050b565b6001600160a01b0381166103015760405162461bcd60e51b81526004016101969061050b565b600280546001600160a01b038681166001600160a01b031992831681179093556003805487831690841681179091556004805487841690851681179091556005805493871693909416831790935560408051948552602085019190915283019190915260608201527f34b5223d872d20a5a9e1d320281d200863843943016262aa59314c2426359cc99060800160405180910390a150505050565b5f546001600160a01b031633146103c55760405162461bcd60e51b8152600401610196906104e8565b6001600160a01b0382165f81815260016020908152604091829020805460ff191685151590811790915591519182527faa3bcffaffe2ebaa44f40802661a785830dae1059ca47f870902cb184dba88b7910160405180910390a25050565b80356001600160a01b0381168114610439575f5ffd5b919050565b5f6020828403121561044e575f5ffd5b61045782610423565b9392505050565b5f5f5f5f60808587031215610471575f5ffd5b61047a85610423565b935061048860208601610423565b925061049660408601610423565b91506104a460608601610423565b905092959194509250565b5f5f604083850312156104c0575f5ffd5b6104c983610423565b9150602083013580151581146104dd575f5ffd5b809150509250929050565b6020808252600990820152682727aa2fa7aba722a960b91b604082015260600190565b6020808252600990820152682d22a927afa0a2222960b91b60408201526060019056fea2646970667358221220fdf70dda34c9ac39bea198182abfc37e20fa89172a9f064b98d545051e33999d64736f6c634300081c0033",
  "linkReferences": {},
  "deployedLinkReferences": {},
  "immutableReferences": {},
  "inputSourceName": "project/contracts/AddressBook.sol",
  "buildInfoId": "solc-0_8_28-8db243d8144a16d22800efe66a569e507012c6c2"
}