{
  "_format": "hh3-artifact-1",
  "contractName": "BatchRegistry",
  "sourceName": "contracts/BatchRegistry.sol",
  "abi": [
    {
      "inputs": [
        {
          "internalType": "contract OrganizationRegistry",
          "name": "_orgs",
          "type": "address"
        }
      ],
      "stateMutability": "nonpayable",
      "type": "constructor"
    },
    {
      "anonymous": false,
      "inputs": [
        {
          "indexed": true,
          "internalType": "uint256",
          "name": "batchId",
          "type": "uint256"
        },
        {
          "indexed": false,
          "internalType": "uint256",
          "name": "parentId",
          "type": "uint256"
        },
        {
          "indexed": false,
          "internalType": "uint256",
          "name": "ownerOrgId",
          "type": "uint256"
        },
        {
          "indexed": false,
          "internalType": "string",
          "name": "productType",
          "type": "string"
        },
        {
          "indexed": false,
          "internalType": "string",
          "name": "metadataCid",
          "type": "string"
        },
        {
          "indexed": false,
          "internalType": "bytes32",
          "name": "dataHash",
          "type": "bytes32"
        }
      ],
      "name": "BatchCreated",
      "type": "event"
    },
    {
      "anonymous": false,
      "inputs": [
        {
          "indexed": true,
          "internalType": "uint256",
          "name": "eventId",
          "type": "uint256"
        },
        {
          "indexed": true,
          "internalType": "uint256",
          "name": "batchId",
          "type": "uint256"
        },
        {
          "indexed": false,
          "internalType": "enum Types.EventType",
          "name": "eventType",
          "type": "uint8"
        },
        {
          "indexed": false,
          "internalType": "uint256",
          "name": "actorOrgId",
          "type": "uint256"
        },
        {
          "indexed": false,
          "internalType": "string",
          "name": "metadataCid",
          "type": "string"
        },
        {
          "indexed": false,
          "internalType": "bytes32",
          "name": "dataHash",
          "type": "bytes32"
        }
      ],
      "name": "BatchEventAppended",
      "type": "event"
    },
    {
      "anonymous": false,
      "inputs": [
        {
          "indexed": true,
          "internalType": "uint256",
          "name": "batchId",
          "type": "uint256"
        },
        {
          "indexed": false,
          "internalType": "enum Types.BatchStatus",
          "name": "oldStatus",
          "type": "uint8"
        },
        {
          "indexed": false,
          "internalType": "enum Types.BatchStatus",
          "name": "newStatus",
          "type": "uint8"
        }
      ],
      "name": "BatchStatusUpdated",
      "type": "event"
    },
    {
      "anonymous": false,
      "inputs": [
        {
          "indexed": true,
          "internalType": "uint256",
          "name": "batchId",
          "type": "uint256"
        },
        {
          "indexed": false,
          "internalType": "uint256",
          "name": "oldOwnerOrgId",
          "type": "uint256"
        },
        {
          "indexed": false,
          "internalType": "uint256",
          "name": "newOwnerOrgId",
          "type": "uint256"
        }
      ],
      "name": "OwnerTransferred",
      "type": "event"
    },
    {
      "anonymous": false,
      "inputs": [
        {
          "indexed": false,
          "internalType": "bool",
          "name": "status",
          "type": "bool"
        }
      ],
      "name": "Paused",
      "type": "event"
    },
    {
      "inputs": [
        {
          "internalType": "uint256",
          "name": "batchId",
          "type": "uint256"
        },
        {
          "internalType": "enum Types.EventType",
          "name": "eventType",
          "type": "uint8"
        },
        {
          "internalType": "string",
          "name": "metadataCid",
          "type": "string"
        },
        {
          "internalType": "bytes32",
          "name": "dataHash",
          "type": "bytes32"
        }
      ],
      "name": "appendEvent",
      "outputs": [
        {
          "internalType": "uint256",
          "name": "eventId",
          "type": "uint256"
        }
      ],
      "stateMutability": "nonpayable",
      "type": "function"
    },
    {
      "inputs": [
        {
          "internalType": "string",
          "name": "productType",
          "type": "string"
        },
        {
          "internalType": "string",
          "name": "metadataCid",
          "type": "string"
        },
        {
          "internalType": "bytes32",
          "name": "dataHash",
          "type": "bytes32"
        },
        {
          "internalType": "uint256",
          "name": "parentId",
          "type": "uint256"
        }
      ],
      "name": "createBatch",
      "outputs": [
        {
          "internalType": "uint256",
          "name": "id",
          "type": "uint256"
        }
      ],
      "stateMutability": "nonpayable",
      "type": "function"
    },
    {
      "inputs": [
        {
          "internalType": "uint256",
          "name": "id",
          "type": "uint256"
        }
      ],
      "name": "getBatch",
      "outputs": [
        {
          "components": [
            {
              "internalType": "uint256",
              "name": "id",
              "type": "uint256"
            },
            {
              "internalType": "uint256",
              "name": "parentId",
              "type": "uint256"
            },
            {
              "internalType": "uint256",
              "name": "ownerOrgId",
              "type": "uint256"
            },
            {
              "internalType": "enum Types.BatchStatus",
              "name": "status",
              "type": "uint8"
            },
            {
              "internalType": "string",
              "name": "productType",
              "type": "string"
            },
            {
              "internalType": "string",
              "name": "metadataCid",
              "type": "string"
            },
            {
              "internalType": "bytes32",
              "name": "dataHash",
              "type": "bytes32"
            },
            {
              "internalType": "uint256",
              "name": "createdAt",
              "type": "uint256"
            }
          ],
          "internalType": "struct Types.Batch",
          "name": "",
          "type": "tuple"
        }
      ],
      "stateMutability": "view",
      "type": "function"
    },
    {
      "inputs": [
        {
          "internalType": "uint256",
          "name": "id",
          "type": "uint256"
        }
      ],
      "name": "getChildren",
      "outputs": [
        {
          "internalType": "uint256[]",
          "name": "",
          "type": "uint256[]"
        }
      ],
      "stateMutability": "view",
      "type": "function"
    },
    {
      "inputs": [
        {
          "internalType": "uint256",
          "name": "batchId",
          "type": "uint256"
        }
      ],
      "name": "getEvents",
      "outputs": [
        {
          "components": [
            {
              "internalType": "uint256",
              "name": "id",
              "type": "uint256"
            },
            {
              "internalType": "uint256",
              "name": "batchId",
              "type": "uint256"
            },
            {
              "internalType": "enum Types.EventType",
              "name": "eventType",
              "type": "uint8"
            },
            {
              "internalType": "uint256",
              "name": "actorOrgId",
              "type": "uint256"
            },
            {
              "internalType": "string",
              "name": "metadataCid",
              "type": "string"
            },
            {
              "internalType": "bytes32",
              "name": "dataHash",
              "type": "bytes32"
            },
            {
              "internalType": "uint256",
              "name": "at",
              "type": "uint256"
            }
          ],
          "internalType": "struct Types.BatchEvent[]",
          "name": "",
          "type": "tuple[]"
        }
      ],
      "stateMutability": "view",
      "type": "function"
    },
    {
      "inputs": [
        {
          "internalType": "uint256[]",
          "name": "sources",
          "type": "uint256[]"
        },
        {
          "internalType": "string",
          "name": "productType",
          "type": "string"
        },
        {
          "internalType": "string",
          "name": "metadataCid",
          "type": "string"
        },
        {
          "internalType": "bytes32",
          "name": "dataHash",
          "type": "bytes32"
        }
      ],
      "name": "mergeBatches",
      "outputs": [
        {
          "internalType": "uint256",
          "name": "mergedId",
          "type": "uint256"
        }
      ],
      "stateMutability": "nonpayable",
      "type": "function"
    },
    {
      "inputs": [],
      "name": "orgs",
      "outputs": [
        {
          "internalType": "contract OrganizationRegistry",
          "name": "",
          "type": "address"
        }
      ],
      "stateMutability": "view",
      "type": "function"
    },
    {
      "inputs": [],
      "name": "paused",
      "outputs": [
        {
          "internalType": "bool",
          "name": "",
          "type": "bool"
        }
      ],
      "stateMutability": "view",
      "type": "function"
    },
    {
      "inputs": [
        {
          "internalType": "bool",
          "name": "_p",
          "type": "bool"
        }
      ],
      "name": "setPaused",
      "outputs": [],
      "stateMutability": "nonpayable",
      "type": "function"
    },
    {
      "inputs": [
        {
          "internalType": "uint256",
          "name": "batchId",
          "type": "uint256"
        },
        {
          "internalType": "uint256",
          "name": "numChildren",
          "type": "uint256"
        }
      ],
      "name": "splitBatch",
      "outputs": [
        {
          "internalType": "uint256[]",
          "name": "childIds",
          "type": "uint256[]"
        }
      ],
      "stateMutability": "nonpayable",
      "type": "function"
    },
    {
      "inputs": [
        {
          "internalType": "uint256",
          "name": "batchId",
          "type": "uint256"
        },
        {
          "internalType": "uint256",
          "name": "newOwnerOrgId",
          "type": "uint256"
        }
      ],
      "name": "transferBatchOwner",
      "outputs": [],
      "stateMutability": "nonpayable",
      "type": "function"
    },
    {
      "inputs": [
        {
          "internalType": "uint256",
          "name": "batchId",
          "type": "uint256"
        },
        {
          "internalType": "enum Types.BatchStatus",
          "name": "newStatus",
          "type": "uint8"
        }
      ],
      "name": "updateBatchStatus",
      "outputs": [],
      "stateMutability": "nonpayable",
      "type": "function"
    }
  ],
  "bytecode": "0x6080604052348015600e575f5ffd5b5060405161245e38038061245e833981016040819052602b91604e565b5f80546001600160a01b0319166001600160a01b03929092169190911790556079565b5f60208284031215605d575f5ffd5b81516001600160a01b03811681146072575f5ffd5b9392505050565b6123d8806100865f395ff3fe608060405234801561000f575f5ffd5b50600436106100a2575f3560e01c806316c38b3c146100a657806349ae8dc3146100bb57806352c88f36146100e45780635ac44282146100f75780635c975abb146101175780635f71ad19146101345780636fa3f214146101555780639f918ecd14610168578063bd687def1461017b578063cab19cdc1461019b578063dabdf8ea146101ba578063e5f1cb9e146101cd575b5f5ffd5b6100b96100b4366004611a53565b6101e0565b005b6100ce6100c9366004611a75565b61035f565b6040516100db9190611a8c565b60405180910390f35b6100b96100f2366004611ace565b6103be565b61010a610105366004611a75565b6105e9565b6040516100db9190611b55565b6006546101249060ff1681565b60405190151581526020016100db565b610147610142366004611c26565b61079e565b6040519081526020016100db565b610147610163366004611ca1565b610973565b6100b9610176366004611d02565b610adf565b61018e610189366004611a75565b610d3e565b6040516100db9190611d32565b5f546101ad906001600160a01b031681565b6040516100db9190611de7565b6101476101c8366004611dfb565b610ea4565b6100ce6101db366004611d02565b6111c3565b5f54604051635692e5a160e11b815233916001600160a01b03169063ad25cb429061020f908490600401611de7565b602060405180830381865afa15801561022a573d5f5f3e3d5ffd5b505050506040513d601f19601f8201168201806040525081019061024e9190611edd565b806102dc57505f5f9054906101000a90046001600160a01b03166001600160a01b0316638da5cb5b6040518163ffffffff1660e01b8152600401602060405180830381865afa1580156102a3573d5f5f3e3d5ffd5b505050506040513d601f19601f820116820180604052508101906102c79190611f0e565b6001600160a01b0316816001600160a01b0316145b6103175760405162461bcd60e51b815260206004820152600760248201526609c9ebe82aaa8960cb1b60448201526064015b60405180910390fd5b6006805460ff19168315159081179091556040519081527f0e2fb031ee032dc02d8011dc50b816eb450cf856abd8261680dac74f72165bd29060200160405180910390a15050565b5f818152600460209081526040918290208054835181840281018401909452808452606093928301828280156103b257602002820191905f5260205f20905b81548152602001906001019080831161039e575b50505050509050919050565b60065460ff16156103e15760405162461bcd60e51b815260040161030e90611f27565b5f8054604051630ffc307760e31b81526001600160a01b0390911690637fe183b890610411903390600401611de7565b602060405180830381865afa15801561042c573d5f5f3e3d5ffd5b505050506040513d601f19601f820116820180604052508101906104509190611f50565b9050805f036104715760405162461bcd60e51b815260040161030e90611f67565b5f80546040516304526f6960e41b8152600481018490526001600160a01b0390911690634526f690906024015f60405180830381865afa1580156104b7573d5f5f3e3d5ffd5b505050506040513d5f823e601f3d908101601f191682016040526104de9190810190612066565b90508060a001516105015760405162461bcd60e51b815260040161030e90612137565b5f61050b85611511565b600381015490915060ff1680600981111561052857610528611aff565b85600981111561053a5761053a611aff565b10156105815760405162461bcd60e51b81526020600482015260166024820152751253959053125117d4d510551157d09050d2d5d0549160521b604482015260640161030e565b60038201805486919060ff191660018360098111156105a2576105a2611aff565b0217905550857fb3a5c503914a9dc93c60c9b1950fd607b0376ecfff219179543ae906c162f82482876040516105d992919061215f565b60405180910390a2505050505050565b6105f16119f3565b60035f8381526020019081526020015f20604051806101000160405290815f82015481526020016001820154815260200160028201548152602001600382015f9054906101000a900460ff16600981111561064e5761064e611aff565b600981111561065f5761065f611aff565b81526020016004820180546106739061217a565b80601f016020809104026020016040519081016040528092919081815260200182805461069f9061217a565b80156106ea5780601f106106c1576101008083540402835291602001916106ea565b820191905f5260205f20905b8154815290600101906020018083116106cd57829003601f168201915b505050505081526020016005820180546107039061217a565b80601f016020809104026020016040519081016040528092919081815260200182805461072f9061217a565b801561077a5780601f106107515761010080835404028352916020019161077a565b820191905f5260205f20905b81548152906001019060200180831161075d57829003601f168201915b50505050508152602001600682015481526020016007820154815250509050919050565b6006545f9060ff16156107c35760405162461bcd60e51b815260040161030e90611f27565b5f8054604051630ffc307760e31b81526001600160a01b0390911690637fe183b8906107f3903390600401611de7565b602060405180830381865afa15801561080e573d5f5f3e3d5ffd5b505050506040513d601f19601f820116820180604052508101906108329190611f50565b9050805f036108535760405162461bcd60e51b815260040161030e90611f67565b5f80546040516304526f6960e41b8152600481018490526001600160a01b0390911690634526f690906024015f60405180830381865afa158015610899573d5f5f3e3d5ffd5b505050506040513d5f823e601f3d908101601f191682016040526108c09190810190612066565b90508060a001516108e35760405162461bcd60e51b815260040161030e90612137565b5f6108ec6115fb565b509050610965818b8b8080601f0160208091040260200160405190810160405280939291908181526020018383808284375f9201919091525050604080516020601f8f018190048102820181019092528d815292508d91508c90819084018382808284375f920191909152508c92508b91506116e79050565b9a9950505050505050505050565b6006545f9060ff16156109985760405162461bcd60e51b815260040161030e90611f27565b5f8054604051630ffc307760e31b81526001600160a01b0390911690637fe183b8906109c8903390600401611de7565b602060405180830381865afa1580156109e3573d5f5f3e3d5ffd5b505050506040513d601f19601f82011682018060405250810190610a079190611f50565b9050805f03610a285760405162461bcd60e51b815260040161030e90611f67565b5f80546040516304526f6960e41b8152600481018490526001600160a01b0390911690634526f690906024015f60405180830381865afa158015610a6e573d5f5f3e3d5ffd5b505050506040513d5f823e601f3d908101601f19168201604052610a959190810190612066565b90508060a00151610ab85760405162461bcd60e51b815260040161030e90612137565b5f610ac16115fb565b509050610ad28989838a8a8a611853565b9998505050505050505050565b60065460ff1615610b025760405162461bcd60e51b815260040161030e90611f27565b5f8054604051630ffc307760e31b81526001600160a01b0390911690637fe183b890610b32903390600401611de7565b602060405180830381865afa158015610b4d573d5f5f3e3d5ffd5b505050506040513d601f19601f82011682018060405250810190610b719190611f50565b9050805f03610b925760405162461bcd60e51b815260040161030e90611f67565b5f80546040516304526f6960e41b8152600481018490526001600160a01b0390911690634526f690906024015f60405180830381865afa158015610bd8573d5f5f3e3d5ffd5b505050506040513d5f823e601f3d908101601f19168201604052610bff9190810190612066565b90508060a00151610c225760405162461bcd60e51b815260040161030e90612137565b5f610c2c85611511565b5f80546040516304526f6960e41b81526004810188905292935090916001600160a01b0390911690634526f690906024015f60405180830381865afa158015610c77573d5f5f3e3d5ffd5b505050506040513d5f823e601f3d908101601f19168201604052610c9e9190810190612066565b805190915015801590610cb257508060a001515b610cf05760405162461bcd60e51b815260206004820152600f60248201526e5441524745545f494e41435449564560881b604482015260640161030e565b60028201805490869055604080518281526020810188905288917f229c3fd47e916ae81a7fbc3a62aa1743038621e0afc7ab17ae64b60a7375fa47910160405180910390a250505050505050565b606060055f8381526020019081526020015f20805480602002602001604051908101604052809291908181526020015f905b82821015610e99578382905f5260205f2090600702016040518060e00160405290815f820154815260200160018201548152602001600282015f9054906101000a900460ff16600c811115610dc757610dc7611aff565b600c811115610dd857610dd8611aff565b815260200160038201548152602001600482018054610df69061217a565b80601f0160208091040260200160405190810160405280929190818152602001828054610e229061217a565b8015610e6d5780601f10610e4457610100808354040283529160200191610e6d565b820191905f5260205f20905b815481529060010190602001808311610e5057829003601f168201915b505050505081526020016005820154815260200160068201548152505081526020019060010190610d70565b505050509050919050565b6006545f9060ff1615610ec95760405162461bcd60e51b815260040161030e90611f27565b5f8054604051630ffc307760e31b81526001600160a01b0390911690637fe183b890610ef9903390600401611de7565b602060405180830381865afa158015610f14573d5f5f3e3d5ffd5b505050506040513d601f19601f82011682018060405250810190610f389190611f50565b9050805f03610f595760405162461bcd60e51b815260040161030e90611f67565b5f80546040516304526f6960e41b8152600481018490526001600160a01b0390911690634526f690906024015f60405180830381865afa158015610f9f573d5f5f3e3d5ffd5b505050506040513d5f823e601f3d908101601f19168201604052610fc69190810190612066565b90508060a00151610fe95760405162461bcd60e51b815260040161030e90612137565b60028910801590610ffb575060408911155b6110355760405162461bcd60e51b815260206004820152600b60248201526a4241445f534f555243455360a81b604482015260640161030e565b5f61103e6115fb565b5090505f5b8a8110156110f3575f61106d8d8d84818110611061576110616121ac565b90506020020135611511565b90506009600382015460ff16600981111561108a5761108a611aff565b141580156110b157506008600382015460ff1660098111156110ae576110ae611aff565b14155b6110ea5760405162461bcd60e51b815260206004820152600a60248201526914d490d7d313d0d2d15160b21b604482015260640161030e565b50600101611043565b50611168818a8a8080601f0160208091040260200160405190810160405280939291908181526020018383808284375f9201919091525050604080516020601f8e018190048102820181019092528c815292508c91508b90819084018382808284375f9201829052508c935091506116e79050565b93505f5b8a8110156111a45761119b8c8c83818110611189576111896121ac565b905060200201356002848b8b8b611853565b5060010161116c565b506111b4846002838a8a8a611853565b50505050979650505050505050565b60065460609060ff16156111e95760405162461bcd60e51b815260040161030e90611f27565b5f8054604051630ffc307760e31b81526001600160a01b0390911690637fe183b890611219903390600401611de7565b602060405180830381865afa158015611234573d5f5f3e3d5ffd5b505050506040513d601f19601f820116820180604052508101906112589190611f50565b9050805f036112795760405162461bcd60e51b815260040161030e90611f67565b5f80546040516304526f6960e41b8152600481018490526001600160a01b0390911690634526f690906024015f60405180830381865afa1580156112bf573d5f5f3e3d5ffd5b505050506040513d5f823e601f3d908101601f191682016040526112e69190810190612066565b90508060a001516113095760405162461bcd60e51b815260040161030e90612137565b5f84118015611319575060408411155b6113515760405162461bcd60e51b815260206004820152600960248201526810905117d0d3d5539560ba1b604482015260640161030e565b5f61135b86611511565b90505f6113666115fb565b509050856001600160401b0381111561138157611381611f93565b6040519080825280602002602001820160405280156113aa578160200160208202803683370190505b5094505f5b86811015611506575f6114dd838560040180546113cb9061217a565b80601f01602080910402602001604051908101604052809291908181526020018280546113f79061217a565b80156114425780601f1061141957610100808354040283529160200191611442565b820191905f5260205f20905b81548152906001019060200180831161142557829003601f168201915b50505050508660050180546114569061217a565b80601f01602080910402602001604051908101604052809291908181526020018280546114829061217a565b80156114cd5780601f106114a4576101008083540402835291602001916114cd565b820191905f5260205f20905b8154815290600101906020018083116114b057829003601f168201915b505050505087600601548d6116e7565b9050808783815181106114f2576114f26121ac565b6020908102919091010152506001016113af565b505050505092915050565b5f8054604051630ffc307760e31b815282916001600160a01b031690637fe183b890611541903390600401611de7565b602060405180830381865afa15801561155c573d5f5f3e3d5ffd5b505050506040513d601f19601f820116820180604052508101906115809190611f50565b5f8481526003602052604081208054909450919250036115b25760405162461bcd60e51b815260040161030e906121c0565b808260020154146115f55760405162461bcd60e51b815260206004820152600d60248201526c4e4f545f4f574e45525f4f524760981b604482015260640161030e565b50919050565b5f8054604051630ffc307760e31b815282916001600160a01b031690637fe183b89061162b903390600401611de7565b602060405180830381865afa158015611646573d5f5f3e3d5ffd5b505050506040513d601f19601f8201168201806040525081019061166a9190611f50565b5f80546040516304526f6960e41b81526004810184905292945090916001600160a01b0390911690634526f690906024015f60405180830381865afa1580156116b5573d5f5f3e3d5ffd5b505050506040513d5f823e601f3d908101601f191682016040526116dc9190810190612066565b60a001519293915050565b5f811561173d575f82815260036020526040812054900361173d5760405162461bcd60e51b815260206004820152601060248201526f14105491539517d393d517d193d5539160821b604482015260640161030e565b60015f815461174b906121e9565b91829055505f81815260036020526040902081815560018101849055600281018890559091508215611791575f838152600360208190526040909120015460ff16611794565b60015b60038201805460ff191660018360098111156117b2576117b2611aff565b0217905550600481016117c58782612259565b50600581016117d48682612259565b50600681018490554260078201558215611809575f838152600460209081526040822080546001810182559083529120018290555b817f0d1949008486b4ef7121f7c4367b7ed9c7031d32c4c783b62a9ab44d921698b28489898989604051611841959493929190612313565b60405180910390a25095945050505050565b5f868152600360205260408120805482036118805760405162461bcd60e51b815260040161030e906121c0565b60025f815461188e906121e9565b91905081905591505f6040518060e001604052808481526020018a815260200189600c8111156118c0576118c0611aff565b815260200188815260200187878080601f0160208091040260200160405190810160405280939291908181526020018383808284375f9201829052509385525050506020808301889052426040938401528c825260058152828220805460018181018355918452928290208551600790940201928355908401518282015591830151600282018054949550859492939192909160ff199091169083600c81111561196c5761196c611aff565b0217905550606082015160038201556080820151600482019061198f9082612259565b5060a0820151816005015560c08201518160060155505088837f93f3bd9920d8993d8a672197b7b09f8cea39707b136202e8ad19c2888e9186ef8a8a8a8a8a6040516119df959493929190612356565b60405180910390a350509695505050505050565b6040518061010001604052805f81526020015f81526020015f81526020015f6009811115611a2357611a23611aff565b815260200160608152602001606081526020015f81526020015f81525090565b8015158114611a50575f5ffd5b50565b5f60208284031215611a63575f5ffd5b8135611a6e81611a43565b9392505050565b5f60208284031215611a85575f5ffd5b5035919050565b602080825282518282018190525f918401906040840190835b81811015611ac3578351835260209384019390920191600101611aa5565b509095945050505050565b5f5f60408385031215611adf575f5ffd5b823591506020830135600a8110611af4575f5ffd5b809150509250929050565b634e487b7160e01b5f52602160045260245ffd5b600a8110611b2357611b23611aff565b9052565b5f81518084528060208401602086015e5f602082860101526020601f19601f83011685010191505092915050565b602081528151602082015260208201516040820152604082015160608201525f6060830151611b876080840182611b13565b50608083015161010060a0840152611ba3610120840182611b27565b905060a0840151601f198483030160c0850152611bc08282611b27565b91505060c084015160e084015260e08401516101008401528091505092915050565b5f5f83601f840112611bf2575f5ffd5b5081356001600160401b03811115611c08575f5ffd5b602083019150836020828501011115611c1f575f5ffd5b9250929050565b5f5f5f5f5f5f60808789031215611c3b575f5ffd5b86356001600160401b03811115611c50575f5ffd5b611c5c89828a01611be2565b90975095505060208701356001600160401b03811115611c7a575f5ffd5b611c8689828a01611be2565b979a9699509760408101359660609091013595509350505050565b5f5f5f5f5f60808688031215611cb5575f5ffd5b853594506020860135600d8110611cca575f5ffd5b935060408601356001600160401b03811115611ce4575f5ffd5b611cf088828901611be2565b96999598509660600135949350505050565b5f5f60408385031215611d13575f5ffd5b50508035926020909101359150565b600d8110611b2357611b23611aff565b5f602082016020835280845180835260408501915060408160051b8601019250602086015f5b82811015611ddb57603f19878603018452815180518652602081015160208701526040810151611d8b6040880182611d22565b5060608101516060870152608081015160e06080880152611daf60e0880182611b27565b60a0838101519089015260c0928301519290970191909152506020938401939190910190600101611d58565b50929695505050505050565b6001600160a01b0391909116815260200190565b5f5f5f5f5f5f5f6080888a031215611e11575f5ffd5b87356001600160401b03811115611e26575f5ffd5b8801601f81018a13611e36575f5ffd5b80356001600160401b03811115611e4b575f5ffd5b8a60208260051b8401011115611e5f575f5ffd5b6020918201985096508801356001600160401b03811115611e7e575f5ffd5b611e8a8a828b01611be2565b90965094505060408801356001600160401b03811115611ea8575f5ffd5b611eb48a828b01611be2565b989b979a50959894979596606090950135949350505050565b8051611ed881611a43565b919050565b5f60208284031215611eed575f5ffd5b8151611a6e81611a43565b80516001600160a01b0381168114611ed8575f5ffd5b5f60208284031215611f1e575f5ffd5b611a6e82611ef8565b6020808252600f908201526e10d3d395149050d517d4105554d151608a1b604082015260600190565b5f60208284031215611f60575f5ffd5b5051919050565b60208082526012908201527113d491d7d393d517d49151d254d51154915160721b604082015260600190565b634e487b7160e01b5f52604160045260245ffd5b60405160c081016001600160401b0381118282101715611fc957611fc9611f93565b60405290565b805160078110611ed8575f5ffd5b5f82601f830112611fec575f5ffd5b81516001600160401b0381111561200557612005611f93565b604051601f8201601f19908116603f011681016001600160401b038111828210171561203357612033611f93565b60405281815283820160200185101561204a575f5ffd5b8160208501602083015e5f918101602001919091529392505050565b5f60208284031215612076575f5ffd5b81516001600160401b0381111561208b575f5ffd5b820160c0818503121561209c575f5ffd5b6120a4611fa7565b815181526120b460208301611ef8565b60208201526120c560408301611fcf565b604082015260608201516001600160401b038111156120e2575f5ffd5b6120ee86828501611fdd565b60608301525060808201516001600160401b0381111561210c575f5ffd5b61211886828501611fdd565b60808301525061212a60a08301611ecd565b60a0820152949350505050565b6020808252600e908201526d4f52475f4e4f545f41435449564560901b604082015260600190565b6040810161216d8285611b13565b611a6e6020830184611b13565b600181811c9082168061218e57607f821691505b6020821081036115f557634e487b7160e01b5f52602260045260245ffd5b634e487b7160e01b5f52603260045260245ffd5b6020808252600f908201526e10905510d217d393d517d193d55391608a1b604082015260600190565b5f6001820161220657634e487b7160e01b5f52601160045260245ffd5b5060010190565b601f82111561225457805f5260205f20601f840160051c810160208510156122325750805b601f840160051c820191505b81811015612251575f815560010161223e565b50505b505050565b81516001600160401b0381111561227257612272611f93565b61228681612280845461217a565b8461220d565b6020601f8211600181146122b8575f83156122a15750848201515b5f19600385901b1c1916600184901b178455612251565b5f84815260208120601f198516915b828110156122e757878501518255602094850194600190920191016122c7565b508482101561230457868401515f19600387901b60f8161c191681555b50505050600190811b01905550565b85815284602082015260a060408201525f61233160a0830186611b27565b82810360608401526123438186611b27565b9150508260808301529695505050505050565b6123608187611d22565b84602082015260806040820152826080820152828460a08301375f60a084830101525f60a0601f19601f8601168301019050826060830152969550505050505056fea2646970667358221220f06259adb599757352c8aebcf033d11e636a454216acf5cf47627a22f6ae3dbc64736f6c634300081c0033",
  "linkReferences": {},
  "deployedLinkReferences": {},
  "immutableReferences": {},
  "inputSourceName": "project/contracts/BatchRegistry.sol",
  "buildInfoId": "solc-0_8_28-d69a2ba8e11ba5100b3663796636786b3af1314d"
}