{
  "_format": "hh3-artifact-1",
  "contractName": "CertRegistry",
  "sourceName": "contracts/CertRegistry.sol",
  "abi": [
    {
      "inputs": [
        {
          "internalType": "contract OrganizationRegistry",
          "name": "_orgs",
          "type": "address"
        }
      ],
      "stateMutability": "nonpayable",
      "type": "constructor"
    },
    {
      "anonymous": false,
      "inputs": [
        {
          "indexed": true,
          "internalType": "uint256",
          "name": "id",
          "type": "uint256"
        },
        {
          "indexed": true,
          "internalType": "bytes32",
          "name": "subject",
          "type": "bytes32"
        },
        {
          "indexed": false,
          "internalType": "uint256",
          "name": "issuerOrgId",
          "type": "uint256"
        },
        {
          "indexed": false,
          "internalType": "string",
          "name": "metadataCid",
          "type": "string"
        },
        {
          "indexed": false,
          "internalType": "uint64",
          "name": "expireAt",
          "type": "uint64"
        }
      ],
      "name": "CertIssued",
      "type": "event"
    },
    {
      "anonymous": false,
      "inputs": [
        {
          "indexed": true,
          "internalType": "uint256",
          "name": "id",
          "type": "uint256"
        }
      ],
      "name": "CertRevoked",
      "type": "event"
    },
    {
      "inputs": [
        {
          "internalType": "uint256",
          "name": "id",
          "type": "uint256"
        }
      ],
      "name": "getCert",
      "outputs": [
        {
          "components": [
            {
              "internalType": "uint256",
              "name": "id",
              "type": "uint256"
            },
            {
              "internalType": "bytes32",
              "name": "subject",
              "type": "bytes32"
            },
            {
              "internalType": "uint256",
              "name": "issuerOrgId",
              "type": "uint256"
            },
            {
              "internalType": "string",
              "name": "metadataCid",
              "type": "string"
            },
            {
              "internalType": "uint256",
              "name": "expireAt",
              "type": "uint256"
            },
            {
              "internalType": "bool",
              "name": "active",
              "type": "bool"
            }
          ],
          "internalType": "struct Types.Certification",
          "name": "",
          "type": "tuple"
        }
      ],
      "stateMutability": "view",
      "type": "function"
    },
    {
      "inputs": [
        {
          "internalType": "bytes32",
          "name": "subject",
          "type": "bytes32"
        },
        {
          "internalType": "string",
          "name": "metadataCid",
          "type": "string"
        },
        {
          "internalType": "uint64",
          "name": "expireAt",
          "type": "uint64"
        }
      ],
      "name": "issueCert",
      "outputs": [
        {
          "internalType": "uint256",
          "name": "id",
          "type": "uint256"
        }
      ],
      "stateMutability": "nonpayable",
      "type": "function"
    },
    {
      "inputs": [],
      "name": "orgs",
      "outputs": [
        {
          "internalType": "contract OrganizationRegistry",
          "name": "",
          "type": "address"
        }
      ],
      "stateMutability": "view",
      "type": "function"
    },
    {
      "inputs": [
        {
          "internalType": "uint256",
          "name": "id",
          "type": "uint256"
        }
      ],
      "name": "revokeCert",
      "outputs": [],
      "stateMutability": "nonpayable",
      "type": "function"
    }
  ],
  "bytecode": "0x6080604052348015600e575f5ffd5b50604051610df9380380610df9833981016040819052602b91604e565b5f80546001600160a01b0319166001600160a01b03929092169190911790556079565b5f60208284031215605d575f5ffd5b81516001600160a01b03811681146072575f5ffd5b9392505050565b610d73806100865f395ff3fe608060405234801561000f575f5ffd5b506004361061004a575f3560e01c806318bf6e651461004e578063b449e71614610074578063cab19cdc14610094578063dbcbc272146100b3575b5f5ffd5b61006161005c3660046107d5565b6100c8565b6040519081526020015b60405180910390f35b610087610082366004610868565b6103c6565b60405161006b919061087f565b5f546100a6906001600160a01b031681565b60405161006b91906108fc565b6100c66100c1366004610868565b6104e5565b005b5f8054604051630ffc307760e31b815282916001600160a01b031690637fe183b8906100f89033906004016108fc565b602060405180830381865afa158015610113573d5f5f3e3d5ffd5b505050506040513d601f19601f820116820180604052508101906101379190610910565b9050805f036101615760405162461bcd60e51b815260040161015890610927565b60405180910390fd5b5f80546040516304526f6960e41b8152600481018490526001600160a01b0390911690634526f690906024015f60405180830381865afa1580156101a7573d5f5f3e3d5ffd5b505050506040513d5f823e601f3d908101601f191682016040526101ce9190810190610a50565b90508060a001516101f15760405162461bcd60e51b815260040161015890610b21565b60058160400151600681111561020957610209610b49565b146102265760405162461bcd60e51b815260040161015890610b5d565b60015f815461023490610b94565b91829055505f8054604051630ffc307760e31b815292955090916001600160a01b0390911690637fe183b89061026e9033906004016108fc565b602060405180830381865afa158015610289573d5f5f3e3d5ffd5b505050506040513d601f19601f820116820180604052508101906102ad9190610910565b90506040518060c0016040528085815260200189815260200182815260200188888080601f0160208091040260200160405190810160405280939291908181526020018383808284375f9201829052509385525050506001600160401b038816602080840191909152600160409384018190528883526002808352928490208551815591850151908201559183015190820155606082015160038201906103549082610c3c565b506080820151600482015560a0909101516005909101805460ff1916911515919091179055604051889085907feef3d8a5f8add482d378b98edbc32cdd07af3e88250c3cc918cc8ef6463b3571906103b39085908c908c908c90610cf6565b60405180910390a3505050949350505050565b6103fc6040518060c001604052805f81526020015f81526020015f8152602001606081526020015f81526020015f151581525090565b60025f8381526020019081526020015f206040518060c00160405290815f8201548152602001600182015481526020016002820154815260200160038201805461044590610bb8565b80601f016020809104026020016040519081016040528092919081815260200182805461047190610bb8565b80156104bc5780601f10610493576101008083540402835291602001916104bc565b820191905f5260205f20905b81548152906001019060200180831161049f57829003601f168201915b50505091835250506004820154602082015260059091015460ff16151560409091015292915050565b5f8054604051630ffc307760e31b81526001600160a01b0390911690637fe183b8906105159033906004016108fc565b602060405180830381865afa158015610530573d5f5f3e3d5ffd5b505050506040513d601f19601f820116820180604052508101906105549190610910565b9050805f036105755760405162461bcd60e51b815260040161015890610927565b5f80546040516304526f6960e41b8152600481018490526001600160a01b0390911690634526f690906024015f60405180830381865afa1580156105bb573d5f5f3e3d5ffd5b505050506040513d5f823e601f3d908101601f191682016040526105e29190810190610a50565b90508060a001516106055760405162461bcd60e51b815260040161015890610b21565b60058160400151600681111561061d5761061d610b49565b1461063a5760405162461bcd60e51b815260040161015890610b5d565b5f83815260026020526040812080549091036106895760405162461bcd60e51b815260206004820152600e60248201526d10d1549517d393d517d193d5539160921b6044820152606401610158565b600581015460ff166106d45760405162461bcd60e51b815260206004820152601460248201527310d1549517d053149150511657d4915593d2d15160621b6044820152606401610158565b5f8054604051630ffc307760e31b81526001600160a01b0390911690637fe183b8906107049033906004016108fc565b602060405180830381865afa15801561071f573d5f5f3e3d5ffd5b505050506040513d601f19601f820116820180604052508101906107439190610910565b9050808260020154146107985760405162461bcd60e51b815260206004820152601d60248201527f4e4f545f415554484f52495a45445f544f5f5245564f4b455f434552540000006044820152606401610158565b60058201805460ff1916905560405185907f3604c0315cff7b06a65a15b5fe246cfb343f507a926cbd09aaf9c3cce88c9c18905f90a25050505050565b5f5f5f5f606085870312156107e8575f5ffd5b8435935060208501356001600160401b03811115610804575f5ffd5b8501601f81018713610814575f5ffd5b80356001600160401b03811115610829575f5ffd5b87602082840101111561083a575f5ffd5b6020919091019350915060408501356001600160401b038116811461085d575f5ffd5b939692955090935050565b5f60208284031215610878575f5ffd5b5035919050565b602081528151602082015260208201516040820152604082015160608201525f606083015160c0608084015280518060e0850152806020830161010086015e5f6101008286010152608085015160a085015260a085015191506108e660c085018315159052565b601f01601f191692909201610100019392505050565b6001600160a01b0391909116815260200190565b5f60208284031215610920575f5ffd5b5051919050565b60208082526012908201527113d491d7d393d517d49151d254d51154915160721b604082015260600190565b634e487b7160e01b5f52604160045260245ffd5b60405160c081016001600160401b038111828210171561098957610989610953565b60405290565b80516001600160a01b03811681146109a5575f5ffd5b919050565b8051600781106109a5575f5ffd5b5f82601f8301126109c7575f5ffd5b81516001600160401b038111156109e0576109e0610953565b604051601f8201601f19908116603f011681016001600160401b0381118282101715610a0e57610a0e610953565b604052818152838201602001851015610a25575f5ffd5b8160208501602083015e5f918101602001919091529392505050565b805180151581146109a5575f5ffd5b5f60208284031215610a60575f5ffd5b81516001600160401b03811115610a75575f5ffd5b820160c08185031215610a86575f5ffd5b610a8e610967565b81518152610a9e6020830161098f565b6020820152610aaf604083016109aa565b604082015260608201516001600160401b03811115610acc575f5ffd5b610ad8868285016109b8565b60608301525060808201516001600160401b03811115610af6575f5ffd5b610b02868285016109b8565b608083015250610b1460a08301610a41565b60a0820152949350505050565b6020808252600e908201526d4f52475f4e4f545f41435449564560901b604082015260600190565b634e487b7160e01b5f52602160045260245ffd5b6020808252601d908201527f4f52475f4e4f545f415554484f52495a45445f41535f41554449544f52000000604082015260600190565b5f60018201610bb157634e487b7160e01b5f52601160045260245ffd5b5060010190565b600181811c90821680610bcc57607f821691505b602082108103610bea57634e487b7160e01b5f52602260045260245ffd5b50919050565b601f821115610c3757805f5260205f20601f840160051c81016020851015610c155750805b601f840160051c820191505b81811015610c34575f8155600101610c21565b50505b505050565b81516001600160401b03811115610c5557610c55610953565b610c6981610c638454610bb8565b84610bf0565b6020601f821160018114610c9b575f8315610c845750848201515b5f19600385901b1c1916600184901b178455610c34565b5f84815260208120601f198516915b82811015610cca5787850151825560209485019460019092019101610caa565b5084821015610ce757868401515f19600387901b60f8161c191681555b50505050600190811b01905550565b84815260606020820152826060820152828460808301375f608084830101525f6080601f19601f86011683010190506001600160401b03831660408301529594505050505056fea26469706673582212204aedf3fba4b77e6de11e1e79e4a177b6e30b4a322826ce5ad589c18d2e71f45464736f6c634300081c0033",
  "linkReferences": {},
  "deployedLinkReferences": {},
  "immutableReferences": {},
  "inputSourceName": "project/contracts/CertRegistry.sol",
  "buildInfoId": "solc-0_8_28-8326891473e25b3281f14dcf88aca63af66e97db"
}