{
  "_format": "hh3-artifact-1",
  "contractName": "OrganizationRegistry",
  "sourceName": "contracts/OrganizationRegistry.sol",
  "abi": [
    {
      "anonymous": false,
      "inputs": [
        {
          "indexed": true,
          "internalType": "uint256",
          "name": "id",
          "type": "uint256"
        },
        {
          "indexed": true,
          "internalType": "address",
          "name": "wallet",
          "type": "address"
        },
        {
          "indexed": false,
          "internalType": "enum Types.OrgType",
          "name": "orgType",
          "type": "uint8"
        },
        {
          "indexed": false,
          "internalType": "string",
          "name": "name",
          "type": "string"
        },
        {
          "indexed": false,
          "internalType": "string",
          "name": "metadataCid",
          "type": "string"
        },
        {
          "indexed": false,
          "internalType": "bool",
          "name": "active",
          "type": "bool"
        }
      ],
      "name": "OrganizationRegistered",
      "type": "event"
    },
    {
      "anonymous": false,
      "inputs": [
        {
          "indexed": true,
          "internalType": "uint256",
          "name": "id",
          "type": "uint256"
        },
        {
          "indexed": true,
          "internalType": "address",
          "name": "wallet",
          "type": "address"
        },
        {
          "indexed": false,
          "internalType": "enum Types.OrgType",
          "name": "orgType",
          "type": "uint8"
        },
        {
          "indexed": false,
          "internalType": "string",
          "name": "name",
          "type": "string"
        },
        {
          "indexed": false,
          "internalType": "string",
          "name": "metadataCid",
          "type": "string"
        },
        {
          "indexed": false,
          "internalType": "bool",
          "name": "active",
          "type": "bool"
        }
      ],
      "name": "OrganizationUpdated",
      "type": "event"
    },
    {
      "anonymous": false,
      "inputs": [
        {
          "indexed": true,
          "internalType": "address",
          "name": "previousOwner",
          "type": "address"
        },
        {
          "indexed": true,
          "internalType": "address",
          "name": "newOwner",
          "type": "address"
        }
      ],
      "name": "OwnershipTransferred",
      "type": "event"
    },
    {
      "anonymous": false,
      "inputs": [
        {
          "indexed": true,
          "internalType": "address",
          "name": "account",
          "type": "address"
        },
        {
          "indexed": false,
          "internalType": "bool",
          "name": "enabled",
          "type": "bool"
        }
      ],
      "name": "SuperAdminSet",
      "type": "event"
    },
    {
      "inputs": [
        {
          "internalType": "uint256",
          "name": "id",
          "type": "uint256"
        }
      ],
      "name": "getOrganization",
      "outputs": [
        {
          "components": [
            {
              "internalType": "uint256",
              "name": "id",
              "type": "uint256"
            },
            {
              "internalType": "address",
              "name": "wallet",
              "type": "address"
            },
            {
              "internalType": "enum Types.OrgType",
              "name": "orgType",
              "type": "uint8"
            },
            {
              "internalType": "string",
              "name": "name",
              "type": "string"
            },
            {
              "internalType": "string",
              "name": "metadataCid",
              "type": "string"
            },
            {
              "internalType": "bool",
              "name": "active",
              "type": "bool"
            }
          ],
          "internalType": "struct Types.Organization",
          "name": "",
          "type": "tuple"
        }
      ],
      "stateMutability": "view",
      "type": "function"
    },
    {
      "inputs": [
        {
          "internalType": "address",
          "name": "",
          "type": "address"
        }
      ],
      "name": "orgIdOf",
      "outputs": [
        {
          "internalType": "uint256",
          "name": "",
          "type": "uint256"
        }
      ],
      "stateMutability": "view",
      "type": "function"
    },
    {
      "inputs": [],
      "name": "owner",
      "outputs": [
        {
          "internalType": "address",
          "name": "",
          "type": "address"
        }
      ],
      "stateMutability": "view",
      "type": "function"
    },
    {
      "inputs": [
        {
          "internalType": "address",
          "name": "wallet",
          "type": "address"
        },
        {
          "internalType": "enum Types.OrgType",
          "name": "orgType",
          "type": "uint8"
        },
        {
          "internalType": "string",
          "name": "name",
          "type": "string"
        },
        {
          "internalType": "string",
          "name": "metadataCid",
          "type": "string"
        },
        {
          "internalType": "bool",
          "name": "active",
          "type": "bool"
        }
      ],
      "name": "registerOrganization",
      "outputs": [
        {
          "internalType": "uint256",
          "name": "id",
          "type": "uint256"
        }
      ],
      "stateMutability": "nonpayable",
      "type": "function"
    },
    {
      "inputs": [
        {
          "internalType": "address",
          "name": "account",
          "type": "address"
        },
        {
          "internalType": "bool",
          "name": "enabled",
          "type": "bool"
        }
      ],
      "name": "setSuperAdmin",
      "outputs": [],
      "stateMutability": "nonpayable",
      "type": "function"
    },
    {
      "inputs": [
        {
          "internalType": "address",
          "name": "",
          "type": "address"
        }
      ],
      "name": "superAdmins",
      "outputs": [
        {
          "internalType": "bool",
          "name": "",
          "type": "bool"
        }
      ],
      "stateMutability": "view",
      "type": "function"
    },
    {
      "inputs": [
        {
          "internalType": "address",
          "name": "newOwner",
          "type": "address"
        }
      ],
      "name": "tranferOwnership",
      "outputs": [],
      "stateMutability": "nonpayable",
      "type": "function"
    },
    {
      "inputs": [
        {
          "internalType": "uint256",
          "name": "id",
          "type": "uint256"
        },
        {
          "internalType": "address",
          "name": "wallet",
          "type": "address"
        },
        {
          "internalType": "enum Types.OrgType",
          "name": "orgType",
          "type": "uint8"
        },
        {
          "internalType": "string",
          "name": "name",
          "type": "string"
        },
        {
          "internalType": "string",
          "name": "metadataCid",
          "type": "string"
        },
        {
          "internalType": "bool",
          "name": "active",
          "type": "bool"
        }
      ],
      "name": "updateOrganization",
      "outputs": [],
      "stateMutability": "nonpayable",
      "type": "function"
    }
  ],
  "bytecode": "0x6080604052348015600e575f5ffd5b505f80546001600160a01b03191633908117825580825260016020818152604093849020805460ff191683179055925190815290917faa3bcffaffe2ebaa44f40802661a785830dae1059ca47f870902cb184dba88b7910160405180910390a26110498061007b5f395ff3fe608060405234801561000f575f5ffd5b5060043610610076575f3560e01c80634526f6901461007a578063456a6887146100a35780637fe183b8146100c457806383fc58b4146100e35780638da5cb5b146100f857806391161b6e14610122578063ad25cb4214610135578063ebe3bb6214610167575b5f5ffd5b61008d610088366004610a12565b61017a565b60405161009a9190610a8b565b60405180910390f35b6100b66100b1366004610b87565b610346565b60405190815260200161009a565b6100b66100d2366004610c25565b60046020525f908152604090205481565b6100f66100f1366004610c25565b610663565b005b5f5461010a906001600160a01b031681565b6040516001600160a01b03909116815260200161009a565b6100f6610130366004610c45565b61072d565b610157610143366004610c25565b60016020525f908152604090205460ff1681565b604051901515815260200161009a565b6100f6610175366004610cec565b61098b565b6040805160c080820183525f80835260208084018290528385018290526060808501819052608085015260a084018290528582526003815290849020845192830185528054835260018101546001600160a01b038116928401929092529293919291830190600160a01b900460ff1660068111156101fa576101fa610a29565b600681111561020b5761020b610a29565b815260200160028201805461021f90610d1d565b80601f016020809104026020016040519081016040528092919081815260200182805461024b90610d1d565b80156102965780601f1061026d57610100808354040283529160200191610296565b820191905f5260205f20905b81548152906001019060200180831161027957829003601f168201915b505050505081526020016003820180546102af90610d1d565b80601f01602080910402602001604051908101604052809291908181526020018280546102db90610d1d565b80156103265780601f106102fd57610100808354040283529160200191610326565b820191905f5260205f20905b81548152906001019060200180831161030957829003601f168201915b50505091835250506004919091015460ff16151560209091015292915050565b335f9081526001602052604081205460ff168061036c57505f546001600160a01b031633145b6103915760405162461bcd60e51b815260040161038890610d55565b60405180910390fd5b6001600160a01b0388166103d85760405162461bcd60e51b815260206004820152600e60248201526d1253959053125117d5d05313115560921b6044820152606401610388565b5f8760068111156103eb576103eb610a29565b0361042b5760405162461bcd60e51b815260206004820152601060248201526f494e56414c49445f4f52475f5459504560801b6044820152606401610388565b6001600160a01b0388165f90815260046020526040902054156104895760405162461bcd60e51b815260206004820152601660248201527513d491d7d053149150511657d49151d254d51154915160521b6044820152606401610388565b60025f815461049790610d7e565b91905081905590506040518060c00160405280828152602001896001600160a01b031681526020018860068111156104d1576104d1610a29565b815260200187878080601f0160208091040260200160405190810160405280939291908181526020018383808284375f92019190915250505090825250604080516020601f8801819004810282018101909252868152918101919087908790819084018382808284375f9201829052509385525050508415156020928301528381526003825260409081902083518155918301516001830180546001600160a01b039092166001600160a01b0319831681178255928501519290916001600160a81b03191617600160a01b8360068111156105ae576105ae610a29565b0217905550606082015160028201906105c79082610e16565b50608082015160038201906105dc9082610e16565b5060a091909101516004918201805460ff19169115159190911790556001600160a01b0389165f818152602092909252604091829020839055905182907f6fcd52274109deceeb1040905fe757960b3aca257cc11bb2218cdf1125da3e3a90610650908b908b908b908b908b908b90610ef3565b60405180910390a3979650505050505050565b5f546001600160a01b0316331461068c5760405162461bcd60e51b815260040161038890610f3c565b6001600160a01b0381166106d45760405162461bcd60e51b815260206004820152600f60248201526e494e56414c49445f4144445245535360881b6044820152606401610388565b5f80546040516001600160a01b03808516939216917f8be0079c531659141344cd1fd0a4f28419497f9722a3daafe3b4186f6b6457e091a35f80546001600160a01b0319166001600160a01b0392909216919091179055565b335f9081526001602052604090205460ff168061075357505f546001600160a01b031633145b61076f5760405162461bcd60e51b815260040161038890610d55565b5f88815260036020526040812080549091036107bd5760405162461bcd60e51b815260206004820152600d60248201526c13d491d7d393d517d193d55391609a1b6044820152606401610388565b6001600160a01b038816158015906107e5575060018101546001600160a01b03898116911614155b1561088a576001600160a01b0388165f908152600460205260409020541561084b5760405162461bcd60e51b815260206004820152601960248201527815d05313115517d053149150511657d49151d254d511549151603a1b6044820152606401610388565b6001810180546001600160a01b039081165f9081526004602052604080822082905583546001600160a01b031916928c16928317909355908152208990555b5f87600681111561089d5761089d610a29565b146108cf5760018101805488919060ff60a01b1916600160a01b8360068111156108c9576108c9610a29565b02179055505b60018101805488919060ff60a01b1916600160a01b8360068111156108f6576108f6610a29565b02179055506002810161090a868883610f5f565b506003810161091a848683610f5f565b5060048101805460ff191683151517905560018101546040516001600160a01b03909116908a907f1eff064e64cd888b0f2df48f50b423a242c281d2f55a1bbdbf9d34a26735ab7990610978908b908b908b908b908b908b90610ef3565b60405180910390a3505050505050505050565b5f546001600160a01b031633146109b45760405162461bcd60e51b815260040161038890610f3c565b6001600160a01b0382165f81815260016020908152604091829020805460ff191685151590811790915591519182527faa3bcffaffe2ebaa44f40802661a785830dae1059ca47f870902cb184dba88b7910160405180910390a25050565b5f60208284031215610a22575f5ffd5b5035919050565b634e487b7160e01b5f52602160045260245ffd5b60078110610a5957634e487b7160e01b5f52602160045260245ffd5b9052565b5f81518084528060208401602086015e5f602082860101526020601f19601f83011685010191505092915050565b602081528151602082015260018060a01b0360208301511660408201525f6040830151610abb6060840182610a3d565b50606083015160c06080840152610ad560e0840182610a5d565b90506080840151601f198483030160a0850152610af28282610a5d565b91505060a0840151151560c08401528091505092915050565b80356001600160a01b0381168114610b21575f5ffd5b919050565b803560078110610b21575f5ffd5b5f5f83601f840112610b44575f5ffd5b5081356001600160401b03811115610b5a575f5ffd5b602083019150836020828501011115610b71575f5ffd5b9250929050565b80358015158114610b21575f5ffd5b5f5f5f5f5f5f5f60a0888a031215610b9d575f5ffd5b610ba688610b0b565b9650610bb460208901610b26565b955060408801356001600160401b03811115610bce575f5ffd5b610bda8a828b01610b34565b90965094505060608801356001600160401b03811115610bf8575f5ffd5b610c048a828b01610b34565b9094509250610c17905060808901610b78565b905092959891949750929550565b5f60208284031215610c35575f5ffd5b610c3e82610b0b565b9392505050565b5f5f5f5f5f5f5f5f60c0898b031215610c5c575f5ffd5b88359750610c6c60208a01610b0b565b9650610c7a60408a01610b26565b955060608901356001600160401b03811115610c94575f5ffd5b610ca08b828c01610b34565b90965094505060808901356001600160401b03811115610cbe575f5ffd5b610cca8b828c01610b34565b9094509250610cdd905060a08a01610b78565b90509295985092959890939650565b5f5f60408385031215610cfd575f5ffd5b610d0683610b0b565b9150610d1460208401610b78565b90509250929050565b600181811c90821680610d3157607f821691505b602082108103610d4f57634e487b7160e01b5f52602260045260245ffd5b50919050565b6020808252600f908201526e2727aa2fa9aaa822a92fa0a226a4a760891b604082015260600190565b5f60018201610d9b57634e487b7160e01b5f52601160045260245ffd5b5060010190565b634e487b7160e01b5f52604160045260245ffd5b601f821115610dfd57805f5260205f20601f840160051c81016020851015610ddb5750805b601f840160051c820191505b81811015610dfa575f8155600101610de7565b50505b505050565b5f19600383901b1c191660019190911b1790565b81516001600160401b03811115610e2f57610e2f610da2565b610e4381610e3d8454610d1d565b84610db6565b6020601f821160018114610e70575f8315610e5e5750848201515b610e688482610e02565b855550610dfa565b5f84815260208120601f198516915b82811015610e9f5787850151825560209485019460019092019101610e7f565b5084821015610ebc57868401515f19600387901b60f8161c191681555b50505050600190811b01905550565b81835281816020850137505f828201602090810191909152601f909101601f19169091010190565b610efd8188610a3d565b608060208201525f610f13608083018789610ecb565b8281036040840152610f26818688610ecb565b9150508215156060830152979650505050505050565b6020808252600990820152682727aa2fa7aba722a960b91b604082015260600190565b6001600160401b03831115610f7657610f76610da2565b610f8a83610f848354610d1d565b83610db6565b5f601f841160018114610fb6575f8515610fa45750838201355b610fae8682610e02565b845550610dfa565b5f83815260208120601f198716915b82811015610fe55786850135825560209485019460019092019101610fc5565b5086821015611001575f1960f88860031b161c19848701351681555b505060018560011b018355505050505056fea2646970667358221220dc49ccd7873e5a3a3fe55fcc662c5a30bc1a5b8c81930453f449d57bd13039f464736f6c634300081c0033",
  "linkReferences": {},
  "deployedLinkReferences": {},
  "immutableReferences": {},
  "inputSourceName": "project/contracts/OrganizationRegistry.sol",
  "buildInfoId": "solc-0_8_28-d2a1be69e47cefa51e5b5a93036ab82ea76652ad"
}