{
  "_format": "hh3-artifact-1",
  "contractName": "TelemetryAnchor",
  "sourceName": "contracts/TelemetryAnchor.sol",
  "abi": [
    {
      "inputs": [
        {
          "internalType": "contract OrganizationRegistry",
          "name": "_orgs",
          "type": "address"
        }
      ],
      "stateMutability": "nonpayable",
      "type": "constructor"
    },
    {
      "anonymous": false,
      "inputs": [
        {
          "indexed": true,
          "internalType": "uint256",
          "name": "id",
          "type": "uint256"
        },
        {
          "indexed": false,
          "internalType": "bytes32",
          "name": "root",
          "type": "bytes32"
        },
        {
          "indexed": false,
          "internalType": "uint8",
          "name": "refType",
          "type": "uint8"
        },
        {
          "indexed": false,
          "internalType": "uint256",
          "name": "refId",
          "type": "uint256"
        },
        {
          "indexed": false,
          "internalType": "uint64",
          "name": "fromTs",
          "type": "uint64"
        },
        {
          "indexed": false,
          "internalType": "uint64",
          "name": "toTs",
          "type": "uint64"
        },
        {
          "indexed": false,
          "internalType": "string",
          "name": "storageUri",
          "type": "string"
        },
        {
          "indexed": false,
          "internalType": "uint256",
          "name": "actorOrgId",
          "type": "uint256"
        }
      ],
      "name": "TelemetryAnchored",
      "type": "event"
    },
    {
      "inputs": [
        {
          "internalType": "bytes32",
          "name": "root",
          "type": "bytes32"
        },
        {
          "internalType": "uint8",
          "name": "refType",
          "type": "uint8"
        },
        {
          "internalType": "uint256",
          "name": "refId",
          "type": "uint256"
        },
        {
          "internalType": "uint64",
          "name": "fromTs",
          "type": "uint64"
        },
        {
          "internalType": "uint64",
          "name": "toTs",
          "type": "uint64"
        },
        {
          "internalType": "string",
          "name": "storageUri",
          "type": "string"
        }
      ],
      "name": "anchor",
      "outputs": [
        {
          "internalType": "uint256",
          "name": "id",
          "type": "uint256"
        }
      ],
      "stateMutability": "nonpayable",
      "type": "function"
    },
    {
      "inputs": [
        {
          "internalType": "uint256",
          "name": "id",
          "type": "uint256"
        }
      ],
      "name": "get",
      "outputs": [
        {
          "components": [
            {
              "internalType": "uint256",
              "name": "id",
              "type": "uint256"
            },
            {
              "internalType": "bytes32",
              "name": "root",
              "type": "bytes32"
            },
            {
              "internalType": "uint256",
              "name": "refId",
              "type": "uint256"
            },
            {
              "internalType": "uint8",
              "name": "refType",
              "type": "uint8"
            },
            {
              "internalType": "uint64",
              "name": "fromTs",
              "type": "uint64"
            },
            {
              "internalType": "uint64",
              "name": "toTs",
              "type": "uint64"
            },
            {
              "internalType": "string",
              "name": "storageUri",
              "type": "string"
            },
            {
              "internalType": "uint256",
              "name": "actorOrgId",
              "type": "uint256"
            }
          ],
          "internalType": "struct TelemetryAnchor.Anchor",
          "name": "",
          "type": "tuple"
        }
      ],
      "stateMutability": "view",
      "type": "function"
    },
    {
      "inputs": [
        {
          "internalType": "uint8",
          "name": "refType",
          "type": "uint8"
        },
        {
          "internalType": "uint256",
          "name": "refId",
          "type": "uint256"
        }
      ],
      "name": "getByRef",
      "outputs": [
        {
          "components": [
            {
              "internalType": "uint256",
              "name": "id",
              "type": "uint256"
            },
            {
              "internalType": "bytes32",
              "name": "root",
              "type": "bytes32"
            },
            {
              "internalType": "uint256",
              "name": "refId",
              "type": "uint256"
            },
            {
              "internalType": "uint8",
              "name": "refType",
              "type": "uint8"
            },
            {
              "internalType": "uint64",
              "name": "fromTs",
              "type": "uint64"
            },
            {
              "internalType": "uint64",
              "name": "toTs",
              "type": "uint64"
            },
            {
              "internalType": "string",
              "name": "storageUri",
              "type": "string"
            },
            {
              "internalType": "uint256",
              "name": "actorOrgId",
              "type": "uint256"
            }
          ],
          "internalType": "struct TelemetryAnchor.Anchor[]",
          "name": "out",
          "type": "tuple[]"
        }
      ],
      "stateMutability": "view",
      "type": "function"
    },
    {
      "inputs": [],
      "name": "orgs",
      "outputs": [
        {
          "internalType": "contract OrganizationRegistry",
          "name": "",
          "type": "address"
        }
      ],
      "stateMutability": "view",
      "type": "function"
    }
  ],
  "bytecode": "0x6080604052348015600e575f5ffd5b50604051610f93380380610f93833981016040819052602b91604e565b5f80546001600160a01b0319166001600160a01b03929092169190911790556079565b5f60208284031215605d575f5ffd5b81516001600160a01b03811681146072575f5ffd5b9392505050565b610f0d806100865f395ff3fe608060405234801561000f575f5ffd5b506004361061004a575f3560e01c80633fad6cb21461004e5780639507d39a146100775780639bc8f09d14610097578063cab19cdc146100b8575b5f5ffd5b61006161005c3660046108c9565b6100d7565b60405161006e91906109a2565b60405180910390f35b61008a610085366004610a05565b6102f8565b60405161006e9190610a1c565b6100aa6100a5366004610a4b565b61040c565b60405190815260200161006e565b5f546100ca906001600160a01b031681565b60405161006e9190610afb565b6001600160f81b031960f883901b1681175f8181526003602090815260408083208054825181850281018501909352808352606095949383018282801561013b57602002820191905f5260205f20905b815481526020019060010190808311610127575b5050505050905080516001600160401b0381111561015b5761015b610b0f565b60405190808252806020026020018201604052801561019457816020015b610181610861565b8152602001906001900390816101795790505b5092505f5b81518110156102ef5760025f8383815181106101b7576101b7610b23565b60209081029190910181015182528181019290925260409081015f208151610100808201845282548252600183015494820194909452600282015492810192909252600381015460ff811660608401526001600160401b0393810484166080840152600160481b900490921660a082015260048201805491929160c08401919061024090610b37565b80601f016020809104026020016040519081016040528092919081815260200182805461026c90610b37565b80156102b75780601f1061028e576101008083540402835291602001916102b7565b820191905f5260205f20905b81548152906001019060200180831161029a57829003601f168201915b505050505081526020016005820154815250508482815181106102dc576102dc610b23565b6020908102919091010152600101610199565b50505092915050565b610300610861565b5f8281526002602081815260409283902083516101008082018652825482526001830154938201939093529281015493830193909352600383015460ff811660608401526001600160401b0391810482166080840152600160481b90041660a082015260048201805491929160c08401919061037b90610b37565b80601f01602080910402602001604051908101604052809291908181526020018280546103a790610b37565b80156103f25780601f106103c9576101008083540402835291602001916103f2565b820191905f5260205f20905b8154815290600101906020018083116103d557829003601f168201915b505050505081526020016005820154815250509050919050565b5f8054604051630ffc307760e31b815282916001600160a01b031690637fe183b89061043c903390600401610afb565b602060405180830381865afa158015610457573d5f5f3e3d5ffd5b505050506040513d601f19601f8201168201806040525081019061047b9190610b6f565b5f80546040516304526f6960e41b81526004810184905292935090916001600160a01b0390911690634526f690906024015f60405180830381865afa1580156104c6573d5f5f3e3d5ffd5b505050506040513d5f823e601f3d908101601f191682016040526104ed9190810190610c6a565b80519091501580159061050157508060a001515b6105415760405162461bcd60e51b815260206004820152600c60248201526b4f52475f494e41435449564560a01b60448201526064015b60405180910390fd5b8961057a5760405162461bcd60e51b8152602060048201526009602482015268524f4f545f5a45524f60b81b6044820152606401610538565b8860ff166001148061058f57508860ff166002145b6105c95760405162461bcd60e51b815260206004820152600b60248201526a4241445f5245465459504560a81b6044820152606401610538565b856001600160401b0316876001600160401b031611156106175760405162461bcd60e51b81526020600482015260096024820152684241445f52414e474560b81b6044820152606401610538565b60015f815461062590610d3b565b91829055505f8054604051630ffc307760e31b815292955090916001600160a01b0390911690637fe183b89061065f903390600401610afb565b602060405180830381865afa15801561067a573d5f5f3e3d5ffd5b505050506040513d601f19601f8201168201806040525081019061069e9190610b6f565b90505f6040518061010001604052808681526020018d81526020018b81526020018c60ff1681526020018a6001600160401b03168152602001896001600160401b0316815260200188888080601f0160208091040260200160405190810160405280939291908181526020018383808284375f920182905250938552505050602091820185905287815260028083526040918290208451815592840151600184015590830151908201556060820151600382018054608085015160a086015160ff90941668ffffffffffffffffff19909216919091176101006001600160401b03928316021767ffffffffffffffff60481b1916600160481b919093160291909117905560c0820151919250829160048201906107bb9082610dab565b5060e082015181600501559050505f8a60f88d60ff16901b17905060035f8281526020019081526020015f2086908060018154018082558091505060019003905f5260205f20015f9091909190915055857f763928f79c9bb8034a388942e5b2c688bfda55e0bff560aca9d30f0392f6f06b8e8e8e8e8e8e8e8b604051610849989796959493929190610e65565b60405180910390a25050505050979650505050505050565b6040518061010001604052805f81526020015f81526020015f81526020015f60ff1681526020015f6001600160401b031681526020015f6001600160401b03168152602001606081526020015f81525090565b803560ff811681146108c4575f5ffd5b919050565b5f5f604083850312156108da575f5ffd5b6108e3836108b4565b946020939093013593505050565b5f81518084528060208401602086015e5f602082860101526020601f19601f83011685010191505092915050565b80518252602081015160208301526040810151604083015260ff60608201511660608301526001600160401b0360808201511660808301525f60a082015161097260a08501826001600160401b03169052565b5060c082015161010060c085015261098e6101008501826108f1565b60e093840151949093019390935250919050565b5f602082016020835280845180835260408501915060408160051b8601019250602086015f5b828110156109f957603f198786030184526109e485835161091f565b945060209384019391909101906001016109c8565b50929695505050505050565b5f60208284031215610a15575f5ffd5b5035919050565b602081525f610a2e602083018461091f565b9392505050565b80356001600160401b03811681146108c4575f5ffd5b5f5f5f5f5f5f5f60c0888a031215610a61575f5ffd5b87359650610a71602089016108b4565b955060408801359450610a8660608901610a35565b9350610a9460808901610a35565b925060a08801356001600160401b03811115610aae575f5ffd5b8801601f81018a13610abe575f5ffd5b80356001600160401b03811115610ad3575f5ffd5b8a6020828401011115610ae4575f5ffd5b602082019350809250505092959891949750929550565b6001600160a01b0391909116815260200190565b634e487b7160e01b5f52604160045260245ffd5b634e487b7160e01b5f52603260045260245ffd5b600181811c90821680610b4b57607f821691505b602082108103610b6957634e487b7160e01b5f52602260045260245ffd5b50919050565b5f60208284031215610b7f575f5ffd5b5051919050565b60405160c081016001600160401b0381118282101715610ba857610ba8610b0f565b60405290565b80516001600160a01b03811681146108c4575f5ffd5b8051600781106108c4575f5ffd5b5f82601f830112610be1575f5ffd5b81516001600160401b03811115610bfa57610bfa610b0f565b604051601f8201601f19908116603f011681016001600160401b0381118282101715610c2857610c28610b0f565b604052818152838201602001851015610c3f575f5ffd5b8160208501602083015e5f918101602001919091529392505050565b805180151581146108c4575f5ffd5b5f60208284031215610c7a575f5ffd5b81516001600160401b03811115610c8f575f5ffd5b820160c08185031215610ca0575f5ffd5b610ca8610b86565b81518152610cb860208301610bae565b6020820152610cc960408301610bc4565b604082015260608201516001600160401b03811115610ce6575f5ffd5b610cf286828501610bd2565b60608301525060808201516001600160401b03811115610d10575f5ffd5b610d1c86828501610bd2565b608083015250610d2e60a08301610c5b565b60a0820152949350505050565b5f60018201610d5857634e487b7160e01b5f52601160045260245ffd5b5060010190565b601f821115610da657805f5260205f20601f840160051c81016020851015610d845750805b601f840160051c820191505b81811015610da3575f8155600101610d90565b50505b505050565b81516001600160401b03811115610dc457610dc4610b0f565b610dd881610dd28454610b37565b84610d5f565b6020601f821160018114610e0a575f8315610df35750848201515b5f19600385901b1c1916600184901b178455610da3565b5f84815260208120601f198516915b82811015610e395787850151825560209485019460019092019101610e19565b5084821015610e5657868401515f19600387901b60f8161c191681555b50505050600190811b01905550565b88815260ff881660208201528660408201526001600160401b03861660608201526001600160401b038516608082015260e060a08201528260e082015282846101008301375f61010084830101525f610100601f19601f86011683010190508260c0830152999850505050505050505056fea26469706673582212200be021489b58abc3e3d5528a75be8fc1f55765e8c0494fbec2181b1d9c5b2b5064736f6c634300081c0033",
  "linkReferences": {},
  "deployedLinkReferences": {},
  "immutableReferences": {},
  "inputSourceName": "project/contracts/TelemetryAnchor.sol",
  "buildInfoId": "solc-0_8_28-377f0e9d166a1a402b18dd25350b263722cf2770"
}